:02000000ff00ff
:080002004c6174746963650030
:17000a00694345637562653220323031352e30342e3237343039006f
:16002100506172743a2069434534304858344b2d545131343400f9
:1a003700446174653a20466562203620323031372031373a34343a333600bd
:0200510000ffae
:040053007eaa997e6a
:02005700510056
:0200590001059f
:03005b00920020f0
:03005e00620367d3
:0300610072011019
:0300640082000017
:02006700110086
:02006900010193
:20006b000000000000000000000000000000000000000000000000400780000000000000ae
:20008b000000000004007000000000100000000000000000000000000000000000000000d1
:2000ab0000000000010000000000000400000000000000000000000000000000000000012f
:0d00cb000000000000000000000000000028
:2000d800000000000000000000000000000000000000000000000000000000000000000008
:2000f8000000000000000800000000000000000000000000000000000000000000000000e0
:200118000000000000000000000000000000000000000000000000000000000000000000c7
:0d01380000000000000000000000000000ba
:2001450000000000000000000000000000000000000000000000000000000000000000009a
:20016500000000000000000000000000000000000000000d0000000000000000000000006d
:2001850000000000010000000000000400f000000000000000000000000000000000000164
:0d01a500003c00000000040000000000000d
:2001b20000000000000000000000000000000000000000000000000000000000000000002d
:2001d2000018000000000000000000000000000000000000000000000000000000000000f5
:2001f2000000000000000000000000000000000000000000000000000000000000000000ed
:0d02120000000000000000000000000000df
:20021f00000000000000000000000000000000000000000000000080000009000000000036
:20023f000000000008000000e0000020000002000000000000000000000000000000000095
:20025f00000000000200200008000008000000a000000000000000000000000000000002ab
:0d027f000000002c00000000000000000046
:20028c0000000000000000000000000000000000000000000000000000000d000000000045
:2002ac000000000000000000d0000000000001400000000000000000000000000000000021
:2002cc000000000000003c003c00000000b000f000000000000000000000000000000000fa
:0d02ec0000000014000000000000000000f1
:2002f900000000000000000000000000000000000000000000000040000100400000000064
:200319000000000004007000040000000000001000000000810000000000000000000000bb
:20033900000000000200000000000000000050000000000000000000000000000000000052
:0d0359000000000000000400001000000083
:20036600000000000000000000000000000000000000000000000000000002000000000075
:20038600000000000000800020000020000000800000000700000000000000000000000010
:2003a6000000000000000000000000000078000000000000000000000000000000000002bd
:0d03c600000000000000000000000000002a
:2003d3000000000000000000000000000000000000000000000000000d810000000000007c
:2003f300000800000000001000000000000040000000000000000000000000000000000092
:20041300000000000000000400000000008010000000000000000000000000000000000035
:0d0433000000040000000000781000000030
:20044000000000000000000000000000000000000000000000000000050000000000000097
:2004600000000000000000000000000000000000000000000000000000000000000000007c
:200480000000000000000000000000000070000000000000000000000000000000000000ec
:0d04a000000000000000000000000000004f
:2004ad0000000000000000000000000000000000000000000000004000000f0000000000e0
:2004cd0000000000000000000000000002c000000000000000050000000000000000000048
:2004ed0000000000000000000000000000000050000000000000000000000000000000009f
:0d050d0000340000000000000000d00000dd
:20051a0000000000000000000000000000000000000000000000004005800b0000000000f1
:20053a000000000000000000000000000200000000004000000e0000000000000000000051
:20055a00000000000000000000000004000000e0000000000000000000000000000000009d
:0d057a00000000000000040000008c0000e4
:20058700000000000000000000000000000000000000000000000000000000000000000054
:2005a7000008000000000000000000000000000000000000000000000000018000000000ab
:2005c7000000000000002000000000000000000000000000000000000000000000000000f4
:0d05e70000000000000000005000000000b7
:2005f4000000000000000000000000000000000000000000000000000000000000000000e7
:20061400000000000000000000000000000000000000400000000000000000000000000086
:200634000000000000001c0000000004000000000000000000000000000000000000000086
:0d065400000000000000040009000000008c
:20066100000000000000000000000000000000000000000000000000000000000000000079
:20068100000000000000000000000000000000000000400000000000000000000000000019
:2006a100000000000000000000000000000000000000000000000000000000000000000039
:0d06c10000000000000000003000000000fc
:2006ce0000000000000000000000000000000000000000000000008000000000000000008c
:2006ee0000000000000000000000000001600000000080000000000000000000000000000b
:20070e000000000000000000080000080001000000000000000000000000000000000000ba
:0d072e000000000000000800800000000036
:20073b0000000000000000000000000000000000000000000000000000000000000000009e
:20075b0000000000000000000000000000000000000000000000000000000000000000007e
:20077b0000000000000000000000000000000000000000000000000000000000000000005e
:0d079b000000000000000a00000000000047
:2007a800000000000000000000000000000000000000000000000000000000000000000031
:2007c800000000000000000000000000000000000000000000000000000000000000000011
:2007e8000000000000000000000000000000000000000000000000000000000000000000f1
:0d08080000000000000000000000000000e3
:200815000000000000000000000000000000000000000000000000000000000000000000c3
:200835000000000000000000000000000000000000000000000000000000000000000000a3
:20085500000000000000000000000000000000000000000000000000000000000000000083
:0d0875000000000000000000000000000076
:20088200000000000000000000000000000000000000000000000000000000000000000056
:2008a200000000000000000000000000000000000000000000000000000000000000000036
:2008c200000000000000000000000000000000000000000000000000000000000000000016
:0d08e2000000000000000000000000000009
:2008ef000000000000000000000000000000000000000000000000000000000000000000e9
:20090f000000000000000000000000000000000000010000000000000000000000000000c7
:20092f000000000000000000000000000000000000000000000000000000000000000000a8
:0d094f00000000000000000000000000009b
:20095c0000000000000000000000000000000000000000000000000000000000000000007b
:20097c0000000000000000000000000000000000000100000000000000000000000000005a
:20099c0000000000000000000000000000000000000000000000000000000000000000003b
:0d09bc00000000000000000000000000002e
:2009c90000000000000000000000000000000000000000000000000000000000000000040a
:2009e9000000000000000000000000000000000000000000000000000000000000000000ee
:200a09000000000000000000000000000000000000000000000000000000000000000000cd
:0d0a290000000000000000000000000000c0
:200a36000000000000000000000000000000000000000000000000000000000000000000a0
:200a5600000000000000000000000000000000000000000000000000000000000000000080
:200a7600000000000000000000000000000000000000000000000000000000000000000060
:0d0a96000000000000000000000000000053
:200aa300000000000000000000000000000000000000000000000000000000000000000033
:200ac300000000000000000000000000000000000000000000000000000000000000000013
:200ae3000000000000000000000000000000000000000000000000000000000000000000f3
:0d0b030000000000000000000000000000e5
:200b10000000000000000000000000000000000000000000000000000000000000000000c5
:200b3000000000000000000000000000000000000000000000000001800000000000000024
:200b5000000000000000000000000000000000000000000000000000000000000000000085
:0d0b70000000000000000000000000000078
:200b7d00000000000000000000000000000000000000000000000000000000000000000058
:200b9d00000000000000000000000000000000000000000000000000000000000000000038
:200bbd00000000000000000000000000000000000000000000000000000000000000000018
:0d0bdd00000000000000000000000000000b
:200bea000000000000000000000000000000000000000000000000000000000000000000eb
:200c0a000000000000000000000000000000000000000000000000000000000000000000ca
:200c2a000000000000000000000000000000000000000000000000000000000000000000aa
:0d0c4a00000000000000000000000000009d
:200c570000000000000000000000000000000000000000000000000000000000000000007d
:200c770000000000000000000000000000000000000000000000000000000000000000005d
:200c970000000000000000000000000000000000000000000000000000000000000000003d
:0d0cb7000000000000000000000000000030
:200cc400000000000000000000000000000000000000000000000000000000000000000010
:200ce4000000000000000000000000000000000000000000000000000000000000000000f0
:200d04000000000000000000000000000000000000000000000000000000000000000000cf
:0d0d240000000000000000000000000000c2
:200d31000000000000000000000000000000000000000000000000000000000000000000a2
:200d5100000000000000000000000000000000000000000000000000000000000000000082
:200d71000000000002800000000000000000000000000000000000000000000000000000e0
:0d0d91000000000000000000000000000055
:200d9e00000000000000000000000000000000000000000000000000000000000000000035
:200dbe00000000000000000000000000000000000000000000000000000000000000000015
:200dde000000000001000000000000000010000000000000000000000000000000000000e4
:0d0dfe0000000000000000000000000000e8
:200e0b000000000000000000000000000000000000000000000000000000000000000000c7
:200e2b000000000000000000000000000000000000000000000000000000000000000000a7
:200e4b00000000000000000000000000000000000000000000000000000000000000000087
:0d0e6b00000000000000000000000000007a
:200e780000000000000000000000000000000000000000000000000000000000000000005a
:200e98000000000000000000000000018000000000000000000000000000000000000000b9
:200eb80000000000000000000000000000000000000000000000000000000000000000001a
:0d0ed800000000000000000000000000000d
:200ee5000000000000000000000000000000000000000000000000000000000000000000ed
:200f05000000000000000000000000000000000000000000000000000000000000000000cc
:200f25000000000000000000000000000000000000000000000000000000000000000000ac
:0d0f4500000000000000000000000000009f
:200f520000000000000000000000000000000000000000000000000000000000000000007f
:200f720000000000000000000000000000000000000000000000000000000000000000005f
:200f920000000000000000000000000000000000000000000000000000000000000000003f
:0d0fb2000000000000000000000000000032
:200fbf00000000000000000000000000000000000000000000000000000000000000000012
:200fdf000000000000000000000000000000000000000000000000000000000000000000f2
:200fff000000000000000000000000000000000000000000000000000000000000000000d2
:0d101f0000000000000000000000000000c4
:20102c000000000000000000000000000000000000000000000000000000000000000000a4
:20104c00000000000000000000000000000000000000000000000000000000000000000084
:20106c00000000000000000000000000000000000000000000000000000000000000000064
:0d108c000000000000000000000000000057
:20109900000000000000000000000000000000000000000000000000000000000000000037
:2010b900000000000000000000000000000000000000000000000000000000000000000017
:2010d9000000000000000000000000000000000000000000000000000000000000000000f7
:0d10f90000000000000000000000000000ea
:201106000000000000000000000000000000000000000000000000000000000000000004c5
:201126000000000000000000000000000000000000000000000000000000000000000000a9
:20114600000000000000000000000000a000000000000000000000000000000000000000e9
:0d116600000000000000000000000000007c
:2011730000000000000000000000000000000000000000000000000000000000000000005c
:2011930000000000000000000000000000000000000000000000000000000000000000003c
:2011b30000000000000000000000000000000000000000000000000000000000000000001c
:0d11d300000000000000000000000000000f
:2011e0000000000000000000000000000000000000000000000000000000000000000000ef
:201200000000000000000000000000000000000000000000000000000000000000000000ce
:201220000000000000000000000000000000000000000000000000000000000000000000ae
:0d12400000000000000000000000000000a1
:20124d00000000000000000000000000000000000000000000000000000000000000000081
:20126d00000000000000000000000000000000000000000000000000000000000000000061
:20128d00000000000000000000000000100000000000000000000000000000000000000031
:0d12ad000000000000000000000000000034
:2012ba00000000000000000000000000000000000000000000000000000000000000000014
:2012da000000000000000000000000000000000000000000000000000000000000000000f4
:2012fa000000000000000000000000000800000000000000000000000000000000000000cc
:0d131a0000000000000000000000000000c6
:201327000000000000000000000000000000000000000000000000000000000000000000a6
:20134700000000000000000000000000000000000000000000000000000000000000000086
:20136700000000000000000000000000000000000000000000000000000000000000000066
:0d1387000000000000000000000000000059
:20139400000000000000000000000000000000000000000000000000000000000000000039
:2013b400000000000000000000000000000000000000000000000000000000000000000019
:2013d4000000000000000000000000000000000000000000000000000000000000000000f9
:0d13f40000000000000000000000000000ec
:201401000000000000000000000000000000000000000000000000000000000000000000cb
:201421000000000000000000000000000000000000000000000000000000000000000000ab
:2014410000000000000000000000000000000000000000000000000000000000000000008b
:0d146100000000000000000000000000007e
:20146e0000000000000000000000000000000000000000000000000000000000000000005e
:20148e0000000000000000000000000000000000000000000000000000000000000000003e
:2014ae0000000000000000000000000000000000000000000000000000000000000000001e
:0d14ce000000000000000000000000000011
:2014db000000000000000000000000000000000000000000000000000000000000000000f1
:2014fb000000000000000000000000000000000000000000000000000000000000000000d1
:20151b000000000000000000000000000000000000000000000000000000000000000000b0
:0d153b0000000000000000000000000000a3
:20154800000000000000000000000000000000000000000000000000000000000000000083
:2015680000000000000000000000000000000000000008000000000000000000000000005b
:2015880000000000000800000000000000000000000000000000000000000000000000003b
:0d15a8000000000000000000000000000036
:2015b500000000000000000000000000000000000000000000000000000000000000000016
:2015d5000000000000000000000000000000000000000000000000000000000000000000f6
:2015f500000000000000000000000000a00000000000000000000000000000000000000036
:0d16150000000000000000000000000000c8
:201622000000000000000000000000000000000000000000000000000000000000000000a8
:20164200000000000000000000000000000000000000000000000000000000000000000088
:20166200000000000000000000000000000000000000000000000000000000000000000068
:0d168200000000000000000000000000005b
:20168f0000000000000000000000000000000000000000000000000000000000000000003b
:2016af0000000000000000000000000000000000000000000000000000000000000000001b
:2016cf000000000000000000000000000000000000000000000000000000000000000000fb
:0d16ef0000000000000000000000000000ee
:2016fc000000000000000000000000000000000000000000000000000000000000000000ce
:20171c000000000000000000000000000000000000000000000000000000000000000000ad
:20173c00000000000000000000000000a000000000000000000000000000000000000000ed
:0d175c001000000000000000000000000070
:20176900000000000000000000000000000000000000000000000000000000000000000060
:20178900000000001000000000000000000000000000000000000000000000000000000030
:2017a900000000000400000000000000000000000000000000000000000000000000000418
:0d17c90000000000000000c800000000004b
:2017d6000000000000000000000000000000000000000000000000000000000000000000f3
:2017f6000000000010000000000000000000000000000000000000000000000000000000c3
:201816000000000000000000000000000000000000000000000000000000000000000004ae
:0d1836000000000000000014000000000091
:20184300000000000000000000000000000000000000000000000000000000000000000085
:20186300000000000010000000000000000000000000000000000000000000000000000055
:20188300000000000000000000000000000000000000000000000000000000000000000045
:0d18a3000000000000000000000000000038
:2018b000000000000000000000000000000000000000000000000000000000000000000018
:2018d0000000000000480000000000000000000000000000000000000000000000000000b0
:2018f0000000000000000000000000000000000000000000000000000000000000000000d8
:0d19100000000000000000000000000000ca
:20191d000000000000000000000000000000000000000000000000000000000000000000aa
:20193d0000000000000000000000000000000000000000000000000000000000000000008a
:20195d0000000000000000000000000000000000000000000000000000000000000000006a
:0d197d00020000000000000000000000005b
:20198a0000000000000000000000000000000000000000000000000000000000000000003d
:2019aa0000000000000000000000000000000000000000000000000000000000000000001d
:2019ca000000000000000000000000000000000000000000000000000000000000000000fd
:0d19ea0004000000000000000000000000ec
:2019f7000000000000000000000000000000000000000000000000000000000000000000d0
:201a17000000000000000000000000000000000000000000000000000000000000000000af
:201a370000000000000000000000000200000000000000000000000000000000000000008d
:0d1a57000000000000000000000000000082
:201a6400000000000000000000000000000000000000000000000000000000000000000062
:201a8400000000000000000000000000000000000000000000000000000000000000000042
:201aa400000000000020000000000000000000000000000000000000000000000000000002
:0d1ac4000000000000000000000000000015
:201ad1000000000000000000000000000000000000000000000000000000000000000000f5
:201af1000000000000000000000000000000000000000000000000000000000000000000d5
:201b11000000000000000000000000000000000000000000000000000000000000000000b4
:0d1b31003000000000000000000000000077
:201b3e00000000000000000000000000000000000000000000000000000000000000000087
:201b5e00000000000000000000000000000000000000000000000000000000000000000067
:201b7e00000000000000000000000000000000000000000000000000000000000000000047
:0d1b9e00000000000000000000000000003a
:201bab0040000000000000000000000000000000000000000000000040000000000080001a
:201bcb000000000000000000000000000000000000000000000000000000000000000000fa
:201beb000000000000000000000000000000000000000000000000000000000000000000da
:0d1c0b0000000000000000140000000000b8
:201c18000000000000000000000000000000000000000000000000000000000000010000ab
:201c380000000000000000000000000000000000000000000000000000000000000000008c
:201c580000000000000000000000000000000000000000000000000000000000000000006c
:0d1c7800000000000000000000000000005f
:201c850000000000000000000000000000000000000000000000000000000000000000003f
:201ca50000000000000000000000000000000000000000000000000000000000000000001f
:201cc5000000000000000000000000000000000000000000000000000000000000000000ff
:0d1ce50000000000000000000000000000f2
:201cf200800000000000000000000000000000000000000000000000000000000000000052
:201d12000000000000000000000000000000000000000000000000000000000000000000b1
:201d3200000000000000000000000040000000000000000000000000000000000000000051
:0d1d52000000000000000060000000000024
:201d5f00400000000000000000000000000000000000000000000000000000000000000024
:201d7f00000000000000000000000000000000000000000000000000000000000000000044
:201d9f00000000000000000000000002000000000000000000000000000000000000000022
:0d1dbf000000000000000000000000000017
:201dcc000000000000000000000000000000000000000000000000000000000000000000f7
:201dec000000000000000000000000000000000000000000000000000000000000000000d7
:201e0c000000000000000000000000000000000000000000000000000000000000000000b6
:0d1e2c0000000000000000000000000000a9
:201e3900000000000000000000000000000000000000000000000000000000000000000089
:201e5900000000000000000000000000000000000000000000000000000000000000000069
:201e7900000000000000000000000000000000000000000000000000000000000000000049
:0d1e9900000000000000000000000000003c
:201ea60000000000000000000000000000000000000000000000000000000000000000001c
:201ec6000000000000000000000000000000000000000000000000000000000000000000fc
:201ee6000000000000000000000000000000000000000000000000000000000000000000dc
:0d1f060000000000000000000000000000ce
:201f13000000000000000000000000000000000000000000000000000000000000000000ae
:201f330000000000000000000000000000000000000000000000000000000000000000008e
:201f530000000000000000000000000000000000000000000000000000000000000000006e
:0d1f73000000000000000000000000000061
:201f8000000000000000000000000000000000000000000000000000000000000000000041
:201fa000000000000000000000000000000000000000000000000000000000000000000021
:201fc0000000000000100000000000000000000000000000000000000000000000000000f1
:0d1fe00000000000000000000000000000f4
:201fed00400000000000000000000000000000000000000000000000000000000000000094
:20200d000000000000000000000000000000000000000000000000000000000000000000b3
:20202d00000000000000000000000000000000000000000000000000000000000000000093
:0d204d000000000000000000000000000086
:20205a00000000000000000000000000000000000000000000000000000000000000000066
:20207a00000000000000000000000000000000000000000000000000004000000000000006
:20209a00000000000000000000000000000000000000000000000000000000000000000026
:0d20ba000000000000000000000000000019
:2020c7000000000000000000000000000000000000000000000000000000000000000000f9
:2020e700000000000000000000000040000000000000000000000000000000000000000099
:202107000000000000000000000000000000000000000000000000000000000000000004b4
:0d21270000000000000000000000000000ab
:2021340080000000000000000000000000000000000000000000000000000000000000000b
:2021540000000000000000000000000000000000000000000000000000000000000000006b
:2021740000000000000000000000000000000000000000000000000000000000000000004b
:0d219400000000000000000000000000003e
:2021a1004000000000000000000000000000000000000000000000000000000000000000de
:2021c1000000000000000000000000000000000000000000000000000000000000010000fd
:2021e1000000000000000000000000000000000000000000000000000000000000000000de
:0d22010080000000000000c0000000000090
:20220e000000000000000000000000000000000000000000000000000000000000000000b0
:20222e0000000000000000000000000000000000000000000000000000000000000100008f
:20224e00000000000000000000000000000000000000000000000000000000000000000070
:0d226e000000000000000000000000000063
:20227b00400000000000000000000000000000000000000000000000000000000000000003
:20229b00000000000000000000000000000000000000000000000000000000000000000023
:2022bb00000000000000000000000000000000000000000000000000000000000000000003
:0d22db0000000000000020000000000000d6
:2022e8000000000000000000000000000000000000000000000000000000000000000000d6
:202308000000000000000000000000000000000000000000000000000000000000000000b5
:20232800000000000000000000000000000000000000000000000000000000000000000095
:0d2348000000000000000000000000000088
:20235500000000000000000000000000000000000000000000000000000000000000000068
:20237500000000000000000000000000000000000000000000000000000000000000000048
:20239500000000000000000000000000000000000000000000000000000000000000000028
:0d23b500000000000000000000000000001b
:2023c20080000000000000000000000000000000000000000000000000000000000000007b
:2023e2000000000000000000000000000000000000000000000000000000000000000000db
:202402000000000000000000000000000000000000000000000000000000000000000000ba
:0d24220000000000000000000000000000ad
:20242f0040000000000000000000000000000000000000000000000000000000000000004d
:20244f0000000000000000000000000000000000000000000000000000000000000000006d
:20246f0000000000000000000000000000000000000000000000000000000000000000004d
:0d248f000000000000000000000000000040
:20249c00000000000000000000000000000000000000000000000000000000000000000020
:2024bc00000000000000000000000000000000000000000000000000000000000000000000
:2024dc000000000000000000000000000000000000000000000000000000000000000000e0
:0d24fc0000000000000000a0000000000033
:202509000000000000000000000000000000000000000000000000000000000000000000b2
:20252900000000000000000000000000000000000000000000000000000000000000000092
:2025490000000000000500000000000000000000000000000000000000000000000000006d
:0d2569000000000000000000000000000065
:20257600000000000000000000000000000000000000000000000000000000000000000045
:20259600000000000000000000000000000000000000000000000000000000000000000025
:2025b600000000000000000000000000000000000000000000000000000000000000000005
:0d25d60000000000000000000000000000f8
:2025e3000000000000000000000000000000000000000000000000000000000000000000d8
:202603000000000000000000000000000000000000000000000000000000000000000000b7
:20262300000000000000000000000000000000000000000000000000000000000000000097
:0d264300000000000000000000000000008a
:2026500000000000000000000000000000000000000000000000000000000000000000006a
:2026700000000000000000000000000000000000000000000000000000000000000000004a
:2026900000000000000000000000000000000000000000000000000000000000000000002a
:0d26b000000000000000000000000000001d
:2026bd004000000000000000000000000000000000000000000000000000000000000000bd
:2026dd000000000000000000000000000000000000000000000000000000000000000000dd
:2026fd000000000000000000000000000000000000000000000000000000000000000000bd
:0d271d0000000000000000000000000000af
:20272a0000000000000000000000000000000000000000000000000000000000000000008f
:20274a0000000000000000000000000000000000000000000000000000000000000000006f
:20276a0000000000000000000000000000000000000000000000000000000000000000004f
:0d278a000000000000000000000000000042
:20279700000000000000000000000000000000000000000000000000000000000000000022
:2027b700000000000000000000000000000000000000000000000000000000000000000002
:2027d7000000000000000000000000000000000000000000000000000000000000000000e2
:0d27f70000000000000000000000000000d5
:20280400800000000000000000000000000000000000000000000000000000000000000034
:20282400000000000000000000000000000000000000000000000000000000000000000094
:20284400000000000000000000000000000000000000000000000000000000000000000074
:0d2864000000000000000000000000000067
:20287100400000000000000000000000000000000000000000000000000000000000000007
:20289100000000000000000000000000000000000000000000000000000000000000000027
:2028b100000000000000000000000000000000000000000000000000000000000000000007
:0d28d10005000000000000000000000000f5
:2028de000000000000000000000000000000000000000000000000000000000000000000da
:2028fe000000000000000000000000000000000000000000000000000000000000000000ba
:20291e00000000000000000000000000000000000000000000000000000000000000000099
:0d293e00020000000000000000000000008a
:20294b0040000000000000000000000000000000000000000000000000000000000000002c
:20296b0000000000000000000000000000000000000000000000000000000000000000004c
:20298b0000000000000000000000000000000000000000000000000000000000000000002c
:0d29ab00000000000000000000000000001f
:2029b8000000000000000000000000000000000000000000000000000000000000000000ff
:2029d8000000000000000000000000000000000000000000000000000000000000000000df
:2029f8000000000000000000000000000000000000000000000000000000000000000000bf
:0d2a180000000000000000000000000000b1
:202a2500000000000000000000000000000000000000000000000000000000000000000091
:202a4500000000000000000000000000000000000000000000000000000000000000000071
:202a650000000000000000000000000a000000000000000000000000000000000000000047
:0d2a85000000000000000000000000000044
:202a92008000000000000000000000000000000000000000000000000000000000000000a4
:202ab200000000000000000000000000000000000000000000000000000000000000000004
:202ad2000000000000000000000000000000000000000000000000000000000000000000e4
:0d2af20000000000000000000000000000d7
:202aff00800000000000000000000000000000000000000000000000000000000000000037
:202b1f00000000000000000000000000400000000000000000000000000000000000000056
:202b3f00000000000000000000000000000000000000000000000000000000000000000076
:0d2b5f000000000000000000000000000069
:202b6c00000000000000000000000000000000000000000000000000000000000000000049
:202b8c00000000000000000000000000200000000000000000000000000000000000000009
:202bac00000000000000000000000000000000000000000000000000000000000000000009
:0d2bcc0000000000000000000000000000fc
:202bd9000000000000000000000000000000000000000000000000000000000000000000dc
:202bf9000000000000000000000000000000000000000000000000000000000000000000bc
:202c190000000000000000000000000000000000000000000000000000000000000000009b
:0d2c3900000000000000000000000000008e
:202c460000000000000000000000000000000000000000000000000000000000000000006e
:202c660000000000000000000000000000000000000000000000000000000000000000004e
:202c86000000000000000000000000006000000000000000000000000000000000000000ce
:0d2ca6000000000000000000000000000021
:202cb300000000000000000000000000000000000000000000000000000000000000000001
:202cd3000000000000000000000000000000000000000000000000000000000000000000e1
:202cf3000000000000000000000000000000000000000000000000000000000000000000c1
:0d2d130000000000000000000000000000b3
:202d2000000000000000000000000000000000000000000000000000000000000000000093
:202d4000000000000000000000000000000000000000000000000000000000000000000073
:202d6000000000000000000000000000000000000000000000000000000000000000000053
:0d2d80000000000000000000000000000046
:202d8d004000000000000000000000000000000000000000000000000000000000000000e6
:202dad00000000000000000000000000000000000000000000000000000000000000000006
:202dcd000000000000000000000000000000000000000000000000000000000000000000e6
:0d2ded0000000000000000000000000000d9
:202dfa000000000000000000000000000000000000000000000000000000000000000000b9
:202e1a00000000000000000000000000000000000000000000000000000000000000000098
:202e3a00000000000000000000000000000000000000000000000000000000000000000078
:0d2e5a00000000000000000000000000006b
:202e670000000000000000000000000000000000000000000000000000000000000000004b
:202e870000000000000000000000000000000000000000000000000000000000000000002b
:202ea70000000000000000000000000000000000000000000000000000000000000000000b
:0d2ec70000000000000000000000000000fe
:202ed40080000000000000000000000000000000000000000000000000000000000000005e
:202ef4000000000000000000000000000000000000000000000000000000000000000000be
:202f140000000000000000000000000000000000000000000000000000000000000000009d
:0d2f34000000000000000000000000000090
:202f41008000000000000000000000000000000000000000000000000000000000000000f0
:202f6100000000000000000000000000000000000000000000000000000000000000000050
:202f8100000000000000000000000000000000000000000000000000000000000000000030
:0d2fa1000000000000000000000000000023
:202fae00000000000000000000000000000000000000000000000000000000000000000003
:202fce000000000000000000000000000000000000000000000000000000000000000000e3
:202fee000000000000000000000000000000000000000000000000000000000000000000c3
:0d300e0000000000000000000000000000b5
:20301b00000000000000000000000000000000000000000000000000000000000000000095
:20303b00007bc102000007ae885400000d9b32330000000002000010800173b300000000e0
:20305b003808f04000000005ba81000001e01fd0f000000001063c10000016016e88002065
:0d307b0000801f628500000002818f0400ac
:20308800000000000000000000000000000000000000000000000000000000000000000028
:2030a8000003c000000002ff9cf80000050a97400200100402c00000000876400000000034
:2030c8007410f0000000000002802100804306d7b000080d0f043c00000000035e1100406b
:0d30e8000010e5228b80000004000f0000a6
:2030f500000000000000000000000000000000000000000000000000000000000028000093
:2031150000000000a002001ebe240280000e06bc100a0000220002800180033c100a4000ce
:203135000008f04029020000000000a0020000e0362280078d9657800a00360200a540088d
:0d315500009000016801a001c000cf06003d
:2031620000000000000000000000000000000000000000000000000000000000000000004d
:20318200000000000003c2e7de5800004010003c00000000434000000000003c0000a00060
:2031a2003410f00002b500000000000000424000300000008fff0b8000000401405a0000b8
:0d31c200027005029400000023000f0000c1
:2031cf000000000000000000000000000000000000000000000000000000000000300000b0
:2031ef0000000000001002ae98540000070e063c1000000002c040000000033c100c000c44
:20320f00040af040300000000000000000001fc02000000000de5780000000664a8000004d
:0d322f000800e001680010000001cf04005d
:20323c00000000000000000000000000000000000000000000000000000000000010000062
:20325c00000000000008043fecf800000090043c0000000001e000000000003c000c00002a
:20327c003810f0101000000000000000140006900000000900db0b8001000029dc001002a9
:0d329c00989109029440103000000f0200cc
:2032a900000000000000000000000000000000000000000000000100000000000000000004
:2032c900000000001001429fbe240000070192600000001e000000034001fff30000400083
:2032e9000018f040000000000000000400001d8d143000039b7f281000003e3800a54000db
:0d330900007000283c0104020000000000dc
:20331600000000000000000000000000000000000000000000000000000000000000000097
:203336000000000000002426de580000008ad7800000000025c00000000f76000000a0000c
:203356000010f010000090000000000a0000000d100000008e08280000a01603c05a0000ff
:0d337600007800403c000203400000000011
:2033830000000000000000000000000000000000000000000000000000000000000000002a
:2033a300000000000000002e98540000218117620800001e380000000d8007bc1000000017
:2033c300001ef040000000000000000000001fd4500000200000295040000079d8a040301f
:0d33e300000000703c0000020024e8b00073
:2033f0000000000000000000000000000000000000000000000000000000000000000000bd
:20341000900000000021c3bf9cfa0000000813444000003c41c00000050e043c0000000c98
:203430000010f010000000e000000000000006dfa00000000010168000002c0000a0002273
:0d345000010000403c2000004026f5b200c5
:20345d0000000000000000000000000000000000000000000000000000000000000000004f
:20347d00000000000000079fbe240000018102bc1000000070000000001a802950000000d4
:20349d00000cf04004000000000000001460418f0400400f0003bc180000163c18f06000a7
:0d34bd00000090703c0000c9e040000000dd
:2034ca000000000000000000000000000000000000000000000000000000000000000000e2
:2034ea000000000000000027de5a00000008003c0000000024c000000000b01680000000f5
:20350a000000f010000000000000000009c2810f0000000b00043c001000026c00f000008d
:0d352a000001b0403c200010020000000035
:20353700000000000000000000000000000000000000000000000000000000000000000074
:20355700000000000000002e88540001000000295000403e01e04000098106bc14010000d0
:20357700380ef04000008000000000000040040a540000000c02bc1000400602ed8b1001f1
:0d35970000000000000000040301af04006c
:2035a400000000000000000000000000000000000000000000000000000000000000000007
:2035c400000000000000003fccf810000000d0168000004e004c0000070e043c000000007f
:2035e4007410f00000003000000000000000000a5000000000003c0000000c2d7d5b00007c
:0d36040000b0000000000001c0000f000039
:20361100000000000000000000000000000000000000000000000000000000000000008019
:20363100000000004000e31ede2400000840000000040004020100000f9f033c1000008066
:20365100040af0400000000000000000000041cf050000001c06bc10204a34237f8b10102d
:0d36710000000801682004080001cf0400db
:20367e000000000000000000000000000000000000000000000000000000000000000030fc
:20369e000000000040002027de5810000b000000000c002602c90028019a043c00002140d3
:2036be002c00f00000000000000000000002000f000400000b003c0000202c01fc5b0010c0
:0d36de00000005029400021400010f00041a
:2036eb0000000000000000000000000000000000000000000000000100000000000400704a
:20370b00006bc1800000001ddf080000000a33330400100068000000050a50002000000083
:20372b00001cf0400000801073c10000000021ea06000820000328100000006000a5600095
:0d374b00000015f2200000000001cf060074
:203758000000000000000000000000000000000000000000000000008000000000000008c9
:203778000043c00000000000e0f00000000b97000000004072400000009c000000800000ae
:203798003800f0010000d0f003c00000000005050000000500f0140000000c03c05a000029
:0d37b800000087244400000403c00f01003e
:2037c500000000000000000000000000000000000000000000000000000000000028058037
:2037e5000073c1000000001c8f080280054a07bc100a10206200000300003000200a002020
:203805000018f04028000001029500a0000281cf041280030006bc180a0160026a880028af
:0d382500000008029500a0000780af04001d
:20383200000000000000000000000000000000000000000000000000000000000000021064
:203852000043c0000000000000f000000d90043c0000003c7b400000030000000000002c60
:203872000000f00100000000029400000344000f0010000000003c0000009402c91100009d
:0d3892000000c3016800000004010f0100e8
:20389f00000000000000000000000000000000000000000000000000000000000000000009
:2038bf0000000000000142948f080000050006bc100d000001c00400000a30002004000074
:2038df0000000000100000002bc10000280007aa0400000101073c18020036000af0400021
:0d38ff000078006bc100c00003018f0500c0
:20390c0000000000000000000000000000000000000000000000000000000000000000009b
:20392c00000000000001428000f000000d80003c040c001c00c00000050008000004000002
:20394c00000000001000700003c080000400020a000002008a043c000000040000f00000c8
:0d396c0000080003c000c00000010f0000b3
:203979000000000000000000000000000000000000000000000000000000000000000080ae
:2039990000000000000140148f0800000000f3e00000a040040000001000500020000000eb
:2039b90000000000040000003bc1800009c001ef05000001801029500000000018f040005e
:0d39d90000800063c1000000c0008f0400ea
:2039e600000000000000000000000000000000000000000000000000000000000000007051
:203a0600900000000001400000f000000900ba4000004e802d400000200008000000000079
:203a2600000000000400000003c0000007e0000f011000400000294010003c0000f00000cd
:0d3a46000010f043c00400a000010f0010ac
:203a5300000000000000000000000000000000000000000000000000000000000004001837
:203a7300c8016900000000148f080000099c972000c0002002000000001e100020000000ca
:203a930000000000010000000000000001e000ef040000050002bc1040002078db8b080025
:0d3ab3000078107bc1000001c040cf04105e
:203ac0000000000000000000000000000000000000000000000000000000000000000000e6
:203ae000c10294800000000200f010000f10b8000000002c03c00000070008000000000018
:203b00000000000000180000000000000000000f0000000d80043c0000003c406ca7000022
:0d3b2000c008a003c001000023400f0000fa
:203b2d00000000000000000000000000000000000000000000000000000000000000000078
:203b4d000f3b30400000c0148f08000001997ae00000000000000000000018002000400eb9
:203b6d0000000000001c3800000000001600200a5580000018872810000c06600cf0410049
:0d3b8d004019cb29780002004301af04105d
:203b9a000000000000000000000000000000000000000000000000100000000000004000bb
:203bba00957000000100200200f000070018b2000000100023c000040000000000003002d9
:203bda00000000000042080000000001eac01c05a01004000ff4140000103c0000f00000ae
:0d3bfa004009adb0b800010004000f00004c
:203c0700000000000000000000000000000000000000000000000000000000000002007922
:203c2700e9322000000140168f08000021987ae0000100002261100000001000200000007d
:203c4700000000000000780000000000000000cf0400400008063c14200000601cf04000a8
:0d3c67000018077a810000000281cf0600de
:203c7400000000000000000000000000000000000000000000000000000000000000000030
:203c9400077444010001400000f0000050909200000000047a6d0000000000000000800042
:203cb40000000000000000000000000001c0000f0004000010003c0a4008004000f000004e
:0d3cd4000800f0c28004000000010f000095
:203ce10000000000000000000000000000000000000000000000000000000000000000388b
:203d010000603c020000c0168f080010299c00000004000020010028000010002000004005
:203d210000000000050000000000000862c041af050010004032a810000000000af04000ea
:0d3d41000080bff62c0400000000cf04003d
:203d4e0000000000000000000000000000000000000000000000000000000000000000084d
:203d6e0000003c000000200000f0000849800000000400007e4f00100000080000000080af
:203d8e0000000000048000000000000e0042000f000008000b002800000c000000f00000fb
:0d3dae000030cbfd6c00000000010f008014
:203dbb000000000000000000000000000000000000000000000000000000000000000000e8
:203ddb00f723e980000000168f08000028005634500020002200002800007a490c0002005b
:203dfb00000ef040028050b12bf44000000001cf040000001807bc120020163b79cc000011
:0d3e1b0012b81100020002000001ef0400c7
:203e2800000000000000000000000000000000000000000000000000000000000000000179
:203e4800f74294000004000000f0c0004d00f7396040100026c0000000005bc801400a0058
:203e68000010f01000000087e7d404000002000f0000000000003c0000403c2b49000000a7
:0d3e88000058a0000008008000010f00900d
:203e9500000000000000000000000000000000000000000000000000000000000028008065
:203eb500052281c0000000468f080280001ef3b8900a0a003800028008003373000a000047
:203ed500001ef050292880056c8000a20000418f040290080e073c100b00346a00a54004aa
:0d3ef5000000a3000200b0080001af0600ad
:203f020000000000000000000000000000000000000000000000000000000000000000702f
:203f220000c282010000030200f0800000009ab6a040000040c000000b00d74000000080f3
:203f42000010f00002801005340400041002410f00002b0100003c0201003c2a405a0000bf
:0d3f6200000100000000001400000f00002e
:203f6f00000000000000000000000000000000000000000000000000000000000000000032
:203f8f00e000000000c0001c8f080000081b1ab89000004032e00420410003bc1004000ca4
:203faf00300af0400c0250c12d0000400003a00a540000000106bc100002806d5888000455
:0d3fcf00000001800200d0000001cf0400be
:203fdc000000000000000000000000000000000000000000000000000000000000000801bc
:203ffc00000000000000000200f000000d0afe396000000c3d4000002d8b043c020c000076
:20401c002410f000400451ad342000c0e0003c05a00000000a003c0000005429d91100009c
:0d403c00045000800000c00000000f0110c3
:20404900000000000000000000000000000000000000000000000100000000000000000056
:20406900000000000002001c8f0800000d9bf2b89000001e02000013880073f300000084fb
:20408900001af0400000180060700802160001cf040000018006bc1040003c2c4dcf0000da
:0d40a9003858058002000002e7a00a54000c
:2040b6000000000000000000000000000000000000000000000000000000000000000000ea
:2040d600000000000000c00200f00000050a9eb6a2000000024000280100568000000102cf
:2040f6000000f0080000000100b00400eb40010f0008000d00003c00000006685c4a20003d
:0d4116000000000000000001e01c05a110e9
:2041230000000000000000000000000000000000000000000000000000000000000000007c
:20414300000000000400001e8f08001008001eb89000001e000000280801802950000000dd
:20416300300cf0400000380ba8000000000000ef04003b83805628100100007e00a54001c1
:0d41830002000500020000000001af060070
:2041900000000000000000000000000000000000000000000000000000000000000000000f
:2041b000000000000200000000f000000900fa396800020203400001870e101680000800ce
:2041d0000010f01000000095815400000000000f00000400800c28000000007b405a000079
:0d41f00000d000000000000000000f0200e1
:2041fd000000000000000000000000000000000000000000000000000000000000000000a2
:20421d00000000000000001e8f0800000800f6b89000001c00000000001800000000000052
:20423d00001ef0404000019802950000e1e041ef060004080003a81000009c02ea880001d4
:0d425d000000010002000001e701af0400b5
:20426a000000000000000000000000000000000000000000000000000000000000004000f4
:20428a00000000000100000000f0000787009ab6a800100222400004000f00000000100006
:2042aa000000f0000048008b016800010803400f0000040700301400001134035b11000268
:0d42ca00580000800000010024010f0200d8
:2042d700000000000000000000000000000000000000000000000000000000000000009037
:2042f70000000000100006de8f080000218e1eb89040070003e04000079e000000000000f8
:20431700001ef0500000180002950010020001af0400000180023c100000062e4c1a0080ca
:0d43370000180000020034004681cf040091
:20434400000000000000000000000000000000000000000000000000000000000000001841
:204364000000000000a0028200f000000090fe396200008003e900000098000000000000f8
:204384003810f0000000000d0168001000c0000f0000005000043c000000002c7f3f000012
:0d43a4000008002000000a0000010f0100c9
:2043b1000000000000000000000000000000000000000000000000000000000000100000dc
:2043d10000000000000366de855003000000f6b8904c000478000003801f073c1000009c16
:2043f1003c0af04000000000317d000001c2008f0400282000063c10000000001aa040009e
:0d44110005000700020000880040ef0400d5
:20441e0000000000000000000000000000000000000000000000000000000000001040002e
:20443e0000000000010142820550010000009eb6a00c02026b4a0000400f043c00000040ba
:20445e003c00f0200008000342bc00100004010f0000101f00003c0040000003c050000007
:0d447e00020000000000000642c00f020016
:20448b00000000000000000000000000000000000000000000000000000000000000000011
:2044ab001f32200000000201ef040000d00906bc10001204000000000000073c10000080f6
:2044cb00607f1000800001a033c1040008006fe000000000003aa810000000644e88000046
:0d44eb0000040322bc0008a0003fd0f00038
:2044f8000000000000000000000000000000000000000000000000000000000000000000a4
:20451800bdb04400000000000f020000101b003c004000023e4000038000003c000001409a
:2045380001fab000000000e003c000000003fda20200010000042800000b0021e91100001e
:0d45580000000002bc740000000ed7b0008f
:204565000000000000000000000000000000000000000000000000000000000000280050be
:2045850000029500a0020781ef060280000002bc100a100000000280200c063c100a0000ec
:2045a500781ef040280078006bc100a0080035f0120280080e06bc180a4e2c0000a5402882
:0d45c500381800000000a0020001e034a042
:2045d20000000000000000000000000000000000000000000000000000000000000000d8f1
:2045f2000d0168000003c0010f0000000000043c0040002400c00000501d043c0000080047
:204612004000f0000000080043c0010a00003dc00000000f0e043c0000200431c05a000079
:0d46320000d000000000000040010030003a
:20463f0000000000000000000000000000000000000000000000000000000000001000004b
:20465f00007bc100c00000008f0401000708023c100c040038e040200000063c100000165e
:20467f00681ef05004007cb3bd78004009e02fe00000000d00de01400000000008f0400051
:0d469f000000a00295000001e03fc02000d7
:2046ac000000000000000000000000000000000000000000000000000000000000100000de
:2046cc00d043c000c00000010f0101000010043c020c0c00436000000000043c00000000dc
:2046ec000000f001040005f7a874004000003da4028000018bb400000100000010f00000bd
:0d470c0000010d0168000000200ea000005b
:20471900000000000000000000000000000000000000000000000000000000000000000080
:20473900aff6200000000001ef048020590002bc10204080040000405000033c1000001c01
:20475900040ef040010078ad22000900000000ef0600102f1edf800c90001e2818f06000b2
:0d4779000030007bc1200a00401f8d14207d
:20478600000000000000000000000000000000000000000000000000000000000000000112
:2047a600b1ac4400000000000f0000102b80003c000081003dc000402000003c000000032f
:2047c6002000f00002800101400000080440010f0000080f9ed0200010012c0000f00000d1
:0d47e60000000043c000040020020d108000
:2047f30000000000000000000000000000000000000000000000000000000000000000188e
:204813000073c1000041e000cf0480000b80073c1000010402000000480003bc10010000e0
:20483300001cf041000078002bc10208004001af050000570002bc1000000001d8a04004d3
:0d4853000070080295040000003fd45000e2
:204860000000000000000000000000000000000000000000000000000000000000000070c8
:204880000003c000000000000f0000038300003c0800000200c00001070f003c00010a005c
:2048a0000000f0000010080043c002000020000f0000002080003c004100000020a00000df
:0d48c000000c050168000003c00edfa00021
:2048cd0000000000000000000000000000000000000000000000000000000000000000903b
:2048ed00e1b95400000000018f040000010006bc12010000380000000780033c1400a10e92
:20490d003b4a5e00000000e00295a00a804000ef0404011500daa802000e80027b8b00009f
:0d492d000000c063c10000006001af040085
:20493a00000000000000000000000000000000000000000000000000000000000000001845
:20495a0000415400000000000f0004000000003c0000000467c000000000043c0000a0024c
:20497a0067592e0000000109016800060000000f000000208e50000010010001685b2000b4
:0d499a0000000003c0000a8142c00f0000b1
:2049a7000000000000000000000000000000000000000000000000000000000000000000f0
:2049c700dfb880080000e3818f0600000000033c100000007be14000000103bc1000008677
:2049e700001cf040000010007bc14010e1c200cf0600000000b7c000000006027b5e0000f8
:0d4a070000001073c10010000000ef04005b
:204a14000000000000000000000000000000000000000000000000000000000000000090f2
:204a340087000000000004010f0000000000003c0800001c31cd0000070c043c0000010015
:204a54000010f0010400980003c000000024000f0000000000b6880000013421492e100094
:0d4a740004008043c020006240000f0000dd
:204a8100000000000000000000000000000000000000000000000000000000000000009184
:204aa100980295000403c200ef0400000000033c1004e03c0001000050000000000000bc8e
:204ac100001cf048000080002bc10000044241ef05001385009e0000902e00001af040005c
:0d4ae1000001e1ae2000040002c0cf04007f
:204aee0000000000000000000000000000000000000000000000000000000000000000f0b8
:204b0e00db0168000802e4000f0080000000003c0804c014004b0008200000000000015ed8
:204b2e002010f0110000700043c004006822800f00002040089400800000000010f0080022
:0d4b4e0000000f604400020002000f000094
:204b5b004000000000000000000000000000000000000000000000000000000000000000fa
:204b7b00056bc32004100701ef500000000106bc1020202000e01000078a728290018a1c8d
:204b9b002edd01000201001063c10002600200ef040028100003bc1000401c001af04000b3
:0d4bbb0000000002950000004000ef050022
:204bc8000000000000000000000000000000000000000000000000000000000000000000cd
:204be80000283e000008043d0fa00001800f003c0000d01c0020000280000402802040020d
:204c08002b5a8108000000b003c0040ca000010f0080100000043c020100020000f008007e
:0d4c2800000003016804000020000f0000e0
:204c3500000000000000000000000000000000000000000000000000000000000028000037
:204c55000723c300a000401d8af00280030003bc100a083c0140028070000000000a0c00f0
:204c7500001ef04028207017717c00a00007200a560288081977c0000a00800000a5602855
:0d4c95002801a0000000a0140001cf0400c1
:204ca200800000000000000000000000000000000000000000000000000000000000000072
:204cc20000003e01000260160fa0000000c0043c0800001e000008033000000000000024e7
:204ce2000000f000000008e0817c000000041c05a000000d0edac40010094000405a00006c
:0d4d0200000000000000000000000f008015
:204d0f0080000000000000000000000000000000000000000000010000000000000000f90a
:204d2f009523c300000a03a68e322100011e07bc1001401c00c0002a0500802958000146cf
:204d4f00001ef0400532009073c102c0040000af040000080106bc10110000780cf04000e2
:0d4d6f00000000000000c0000001cf04049f
:204d7c000000000000000000000000000000000000000000000000000000000000000018ff
:204d9c0080803c800017c4050c3003010090043c000100000020100100093016800000004a
:204dbc003000f000008101e003c000c00640000f0200000f0e003c001000000000f0200002
:0d4ddc00000000000000400000010f00007a
:204de900000000000000000000000000000000000000000000000000000000000000009812
:204e09001523c30000004000cf060000080000295000060000c00000000053420000403429
:204e290069f84000008000a023c10010c00000ef0600000800802950000000001cf04000b2
:0d4e49008018006bc14004000000ef0480e1
:204e56000000000000000000000000000000000000000000000000000000000000000070cc
:204e760080803c00000000010f000000070030168010000000202040500097400000a02488
:204e96002b6801000000010043c000101400000f000002010f7016841000240000f02001d0
:0d4eb60000000003c0000a0000010f000012
:204ec3000000000000000000000000000000000000000000000000000000000000000000cf
:204ee30007a3c3000002062de01000000380073c100000007dc0200a880107bc100000166e
:204f03006800a55100800007af9c00000000408f040000038080295040209c000ef04800cd
:0d4f23000430a063c180000000440a541057
:204f300000000000000000000000000000000000000000000000000000000000000000045d
:204f500000003c000002472fc00000000000043c00400600380000000b08003c0020400060
:204f700001405a000008500d6f2c00000003010f00080000801016800041420000f00000d2
:0d4f900030d10043c000000003400a500073
:204f9d004000000000000000000000000000000000000000000000000000000000000000b4
:204fbd0005a3c30000006060a6052000001c02bc1000000079e040404018033c1000040070
:204fdd0069695e000002f80730110800084000cf04000018093b9788004400040aa00000b2
:0d4ffd000000003a81000000078000000065
:20500a00000000000000000000000000000000000000000000000000000000000000000086
:20502a0000003c000060024d090000030000003c08000000402000400900003c0040a00066
:20504a0002fd2e100000f00d003000000020010f00000b7f0f3a874000a05c3fd0500000b7
:0d506a000010830140000001c400000000a0
:20507700000000000000000000000000000000000000000000000000000000000000001801
:2050970005a3c3001000022eaff000100008063c1200020000600008081a1380000000061e
:2050b700656ea000000479807bc100100043818f048000439d9f57800020000000000000d0
:0d50d70000f80033c1000a0007800000004f
:2050e40080000000000000000000000000000000000000000000000000000000000000002c
:2051040000803c00000000040f5000080000003c0000000400001011070af4028800004331
:205124006010a0080002080043c020000003c10f000002001cff07401040bc2400000000bf
:0d51440005f80043c0000002440000000018
:2051510040000000000000000000000000000000000000000000000000000000003000814d
:2051710087a3c3000000005da08028000000023c1015000078400402090007bc100006b6d3
:2051910023ce5e000000001063c100001400200a5400109588063c1000441c00fea040002c
:0d51b100080003f22c0020000000000000a8
:2051be000000000000000000000000000000000000000000000000000000000000200010a1
:2051de0000803c000000122600000000000e043c00050000000000100b80003c0000007c17
:2051fe0003592e08003090e043c0000000400c05a008283f00043c0010a0020020a000004a
:0d521e00300003b96c8008000000000000a3
:20522b00400000000000000000000000000000000000000000000000000000000000000023
:20524b000723c3000028c38de0100020081803bc1000000000e00400700a00002000000e53
:20526b003a00a540010078107bc1000007e0018f06000001801029584000000018f0400028
:0d528b0000000033c100001000018f04007e
:205298000002000000000000000000000000000000000000000000000000000000000000f4
:2052b80000003c30004007acf08080028b0a043c080000013c000002100003400080000096
:2052d80030c05a00400050e043c000000142c10f000400108e00294000a0000010f00040fb
:0d52f80000000043c004100a40000f000039
:20530500000000000000000000000000000000000000000000000000000000000028000060
:2053250007215504a00200018f04028008011029500a04240060000188003800200a000020
:20534500017a200028287007b46800a001c3800a5402938800f700000a2e1e781ef0602810
:0d536500200008029500a0a0600cc50410f7
:2053720080000000000000000000000000000000000000000000000000000000000000009b
:20539200000154000003c3c00f000003810f00294800003e30200800070008000000000068
:2053b200026800000000f00f78fc040004240405a0040007003f8040000c000010f0000013
:0d53d2000400ed016800000020020500004d
:2053df0080000000000000000000000000000000000000000000000000000000000000002e
:2053ff00000000004001e61faf509000000196820800060000e00001000000402000061e2d
:20541f0000dc80020000000738200010000000cf0600002f817039d09400802018f04031f5
:0d543f00000008029500040000000a54005f
:20544c00000000000000000000000000000000000000000000000000000000000000000040
:20546c00000000004001602d0ff08000000dbf000000100000201000800002000000000e37
:20548c003970000000000001740040040000000f000002178e9830c00c81004000f0085249
:0d54ac000000f90168010000000c05a000df
:2054b9000000000000000000000000000000000000000000000000000100000000000000d2
:2054d9000000000000000236c0a00000080080295000810000e000035500000020004214eb
:2054f9002e5f5e000101f80bb940000800002495e00000004007bc10000000001cf04000aa
:0d55190000840002950000f000000a54001c
:20552600000000000000000000000000000000000000000000000000000000000000000065
:20554600000000000003c297000000000d0bb0168800100000204028208002400000000009
:2055660020ee1d080002f80160400004000005c2e000000000043c000002000000f000403a
:0d55860000b08f0168000000002c05a0009f
:205593000000000000000000000000000000000000000000000000000100000000000000f7
:2055b30000000000000067a4fff00008080e02bc10010100206010100001004020000140ae
:2055d300680af040010078b033c140000060400a548410400002bc12400000001cf061006a
:0d55f3000000e02bc100004207c1ef0408da
:2056000000000000000000000000000000000000000000000000000000000000000000008a
:2056200000000000000007a7edf000000110043c0801408040000028200e030000000e849a
:205640000010f0000280089003c0000000022c05a000200000043c000000000010f000003a
:0d56600000f09043c000100042000f000059
:20566d004000000000000000000000000000000000000000000000000000000000000000dd
:20568d00000000000000001caff02010050d76420000813e20e010039d0000002000011e9a
:2056ad0029df5e000000000bfbd42004086000ef04000aa70102bc122000802000000000dc
:0d56cd0000000033c100084006a4eaa01050
:2056da000000000000000000000000000000000000000000000000000000000000000000b0
:2056fa0000000000000000040df00020008873000800409e740000007f090380000080a4eb
:20571a00417b2e100000d08163dc00084400000f001050008d003c06000104000000000056
:0d573a0000000003c0000000022d05a000cb
:20574700000000000000000000000000000000000000000000000001400000000000009c65
:20576700000000000041460ca0303000098000295000000000c0200000000040200000004d
:20578700780ef040020181ab6bec000003c00ee1a00030200b02bc18400000000000000102
:0d57a7000000006bc1000a0043800a54900e
:2057b400800000000000000000000000000000000000000000000000000000000000001045
:2057d400000000000000067600b00000030d901680000000002000098900028000000c0013
:2057f4006010f000010810aba7e80000026004d3f010300d18003c000000400000000002d6
:0d5814000000f003c0000400041c05a0000b
:205821008000000000000000000000000000000000000000000000000000000000300000b7
:20584100000000000002400000000000100e7e51404400000040801000000040200120be85
:20586100780cf0400280f9b5e3dc08002000249a100000801c063c140040007800000000e4
:0d5881003c000000000000020001cf048088
:20588e000000000000000000000000000000000000000000000000000000000000201800c2
:2058ae00000000000003c000000000282010bebe80040c00002000280000030000014146e0
:2058ce000000f0200280d8d003dc0000000005cd1000105000003c0c00a0800000000000f7
:0d58ee000200000000000803c0010f0010c0
:2058fb000000000000000000000000000000000000000000000000408000000000041001b8
:20591b00a523c3000a000380ef040000011b7ed788004000016008000001023c000086807a
:20593b0000000000001880106bc100000c0614c0500020118893f300100086285ce23000d7
:0d595b002d01a30002000001665cde2108a2
:205968000000000000000000000000000000000000000000000000a1400000000004010138
:20598800006c3c20002004000f00000200889ecb8000300000200000500f003c0500404021
:2059a80000000000000070f043c00000954000005000002010f7000000096c6cdff0000080
:0d59c800180000380000000002ae8f000043
:2059d500060000000000000000000000000000000000000000000000000000000028000084
:2059f5000723c300a00340418f04028008013aa0008a000001e00280098007bc102a040012
:205a1500600ef0402930001063c100a00000018f040a80000c0029500a0000004af520405a
:0d5a350002f019a65680a403e00d8b54006a
:205a4200000000000000000000000000000000000000000000000000000000000000000044
:205a620000003c200003e2400f008000070d900008000000382040000180003c00000140d2
:205a82002c10f000820000f043c0400002c0000f0000000f00b016800000000260ff01009b
:0d5aa2000150e1b55800080be00ef52000a2
:205aaf000000000000000000000000000000000000000000000000000000000000018281d3
:205acf00b523c30000020001ef0404004780802950000e0001c0402850190000000000348e
:205aef00000ef040103830002bc1800001e001af040360011e023c1000001420dce04200de
:0d5b0f002250b3a6de0000000001af06002a
:205b1c00000000000000000000000000000000000000000000000000000000000001001157
:205b3c0080803c20000040000f000000808090168200208000200000a01e000000000016e2
:205b5c000000f001128d00f043c000000240010f000301001f043c0000000240e0f40000db
:0d5b7c00bc90a5b44800000400000f00001c
:205b89000000000000000000000000000000000000000000000000000000000000000018e4
:205ba9001723c30100006007a5e00000001b03bc1001002004c04003d000023c10000200c0
:205bc9000000a540000258002bc100080800200a56000300000000000001c023cca5400069
:0d5be900005007a6de800e03e0200a5400e5
:205bf60000000000000000000000000000000000000000000000000000000000000000008f
:205c160080803c000000003ea2e20000100a043c0401002c340000002000043c0000201c15
:205c360002c05a000001089003c000001442dc05a0040040000000000001c002e8560000ba
:0d5c56000054a5b048000c01c00c05a000d2
:205c6300000000000000000000000000000000000000000000000000000000000000100011
:205c830007a3c300002200018f050040000097c100404d6001e00000581a07bc1000814071
:205ca3006aeafa40000000003bc1000061c005c0008040559a07bc12000000785ee24000f5
:0d5cc300005003a2de0400014044fa72808c
:205cd0000000000000000000000000000000000000000000000000000000000000000000b4
:205cf00000003c800023c3c00f000040200093a90000803c002040000100003c00004c14ce
:205d10000260ff000100000003c00002142007005000028010003c0000803c00d8f000006f
:0d5d300000000dbc4800000032adaa10803c
:205d3d0000000000000000000000000000000000000000000000000800000000000000003e
:205d5d0005a3c32000000000cf040000080803bc10400a2000e0042000019f020000008059
:205d7d007ecb080001000001029500021402a0a4000010080003bc10404236681af04180ee
:0d5d9d000270bfa2de800002602fe2440011
:205daa000000000000000000000000000000000000000000000000000000000000000000d9
:205dca0000003c00000000000f0000000b00003c0000001c000000102008f740000000405c
:205dea002a4a00000280000002940004e0036c980000200300003c00000e1c0010f0000099
:0d5e0a000400a5ac48000082c00d9380800c
:205e170000000000000000000000000000000000000000000000000000000000000400194e
:205e370085a3c300004800408f0400114388073c1000000005608008480002bc10000020f3
:205e5700781ef0400000008002950000000037e3a42800459f32b8840000006000a5408051
:0d5e77000051cba6de8010080046ea540062
:205e84000000000000000000000000000000000000000000000000000000000000001000ee
:205ea40000803c020013c2010f000800a080043c000000003c0000208f00043c00000c1488
:205ec4004000f0000000110f0168000814001d0380900a809856fc0800000043405a080058
:0d5ee400180105a04800000403e5d560008a
:205ef1000000000000000000000000000000000000000000000000000000000000300081e0
:205f110087a3c30000000000cf04000007097e28180c80047c6080005d01534040000020a5
:205f3100001cf040000000006bc1002000406fe0001000001e567888200080041cf0404174
:0d5f51000000afa2de001000078c9e2100b2
:205f5e000000000000000000000000000000000000000000000000000000000000200010f3
:205f7e0000803c020002c0010f0000000f180828000d0002382000002f8a7a00000020144e
:205f9e000010f000002c000003c0800016c22e980000004300327c024001012800f0008009
:0d5fbe0080000da448000000043f8f01008a
:205fcb000000000000000000000000000000000000000000000000000000000000000000b6
:205feb000723c38000000015bf0c0000000802bc1000000001c00082050b135780004036c0
:20600b0004d80800000000003bc10000c003808f04022801003b8280000000000ef0400118
:0d602b0000018ba2de0008840246be2100a9
:20603800000000000000000000000000000000000000000000000000000000000000000048
:2060580000003c100000000080f010000010003c00100e00000004000089be8b8001803cdf
:206078003bce00080001000003c0000017c4010f000038000e3c17c04001400010f001026b
:0d609800809083b4481000024664af000001
:2060a5000000000000000000000000000000000000000000000000000000000000280500ae
:2060c5000723c380a000001c8f0c0a80010002bc101a200000e0828807007b20008a00143a
:2060e5000008f040280000006bc100a00000040a54008001003628040a00400000a56028b3
:0d610500200005265600a401e04ed804003d
:2061120000000000000000000000000000000000000000000000000000000000000002006b
:2061320000003c004001c00000f010000089043c0800400000200010000ef00000000002cf
:206152003810f000100000b003c000000000000a510000070e0c280000400000c05a010073
:0d61720008d009355800020003e5f00000d8
:20617f000000000000000000000000000000000000000000000000000000000000000201fd
:20619f009523c30000e206548f0c07000008063c1800900001e0040308018029500040006b
:2061bf0062ed1a00000000003bc10040040701cf04000000001628d0800020000af0611122
:0d61df0082180ba744000002002efdb00046
:2061ec0000000000000000000000000000000000000000000000000000000000000004008f
:20620c0080803c040000420200f003000710003c0000508000200010010e901680100e0055
:20622c0000ca3f000000000043c000c01c04000f000001800d7000f000001c0000f0081144
:0d624c00010801aa2c00080143af9fb0001b
:2062590000000000000000000000000000000000000000000000000000000000000000180d
:206279001523c300000060548f0d00000000063c1000100401e00020050180295800000646
:206299000040a5400000500073c10100416001af06004007003f168800001e001af0600038
:0d62b9000018010295000e01e05dc81020e4
:2062c6000000000000000000000000000000000000000000000000000000000000000000b8
:2062e60080803c040001c20200f000000000043c0040100200000412008f101680000c3486
:206306000000a5000200000043c000000020000f0000080f00d815400000020000f0000068
:0d6326000000000294000a202236085208f0
:2063330000000000000000000000000000000000000000000000000000000000000030001a
:2063530007a3c3040408001e8f0e8000080007bc1040a02001e00040901b002950004036dc
:20637300041ef0600000580033c100000000200a5403000781bf97c000001e0600a5500014
:0d6393000200007bc1000009405cca103010
:2063a0000000000000000000000000000000000000000000000000000000000000000000dd
:2063c00000003c000a14000000f000100300003c0000403c000010000508f0168020202c99
:2063e0002810f0000418080003c0801000002c05a102038b0830028010040023c05a000091
:0d6400000500a043c000000403dc0d1000e7
:20640d0000000000000000000000000000000000000000000000000000000000000000006f
:20642d0005a3c3040a0000168f0c0000400000295000002000e000280000175780000176df
:20644d000418f040000018107bc10004004381ef060000078813168000000000cef50000c7
:0d646d000081a073c100040207e5d8000003
:20647a00000000000000000000000000000000000000000000000000000000000000000002
:20649a0000003c000400000000f01000200090168040003c3c0000005500dacb80000084a6
:2064ba003810f000000800d043c000020022410f00004807093815401000003c20f52000d5
:0d64da000010f043c00000cfc3fdb00090e3
:2064e7000000000000000000000000000000000000000000000000000000000000010098fc
:2065070005a3c304000060168f0c0000105f03bc1000416005c00000000d72a00080000fa2
:20652700605f80000000801073c1000a000040ef0400000f007e8280010006040000000476
:0d65470000000000000000a2e7eee00000f0
:20655400000000000000000000000000000000000000000000000000000000000000801097
:2065740000803c000000000200f20400000d043c0040009c3c200800001a38000040003cf8
:2065940040cd0000000050a003c002000003010f000000058e3817c04001403800000000b7
:0d65b4000000000000000003e3a7005000fd
:2065c100000000000000000000000000000000000000000000000000000000000030008109
:2065e10087a3c300d002061e8f0c08400000033c1404000400c0000021800016880000007a
:20660100074c0800000000e063c120000007200a540120900b7e3d40000080201cf040834f
:0d66210000000000000004200025c8042037
