:10000000A2C00000BBC00000B9C00000B7C0000023
:10001000B5C00000B3C00000B1C00000AFC0000018
:10002000ADC00000ABC00000CBC70000A7C00000FF
:10003000A5C00000A3C00000A1C000009FC0000038
:100040009DC000009BC0000099C0000097C0000048
:1000500095C0000093C0000091C000008FC0000058
:100060008DC000008BC0000089C0000087C0000068
:1000700085C0000083C0000081C000007FC0000078
:100080007DC000007BC0000079C0000077C0000088
:1000900075C0000073C0000071C000006FC0000098
:1000A0006DC000006BC0000069C0000012011001AB
:1000B000000000088117C0C001000102030109020D
:1000C0002000010100C0320904000002FF0000000E
:1000D00007058102400000070502024000000403FA
:1000E00009042C037700770077002E007400650068
:1000F000630068006E0069006B0075006D002D00E4
:100100007700690065006E002E0061007400000039
:100110001803650073007400690063006B002D0014
:100120006A0074006100670000001A0330003000AC
:10013000300030003000300030003000300030003F
:1001400030003000000011241FBECFEFDAE0DEBF28
:10015000CDBF11E0A0E0B1E0ECE7F1E102C0059015
:100160000D92AC30B107D9F712E0ACE0B1E001C0BC
:100170001D92AE38B107E1F754D1FEC741CF80914F
:100180008602813091F480918502813A71F48091E8
:10019000E800877F8093E8008091E800982F9B7F9C
:1001A0009093E8008F778093E80008950F931F9352
:1001B000CF93DF9380918402882309F40EC181E0FC
:1001C0008093E90060910E0170910F016115710536
:1001D000B1F08091E80085FF12C080910A019091F2
:1001E0000B0112D68091E800982F9E7F9093E80033
:1001F0008F778093E80010920F0110920E0182E039
:100200008093E9008091E80085FFE7C06091F100EC
:1002100070E02091F100922F80E0682B792B709391
:100220000D0160930C0180910801909109011DD688
:100230008091E800982F9B7F9093E8008F778093C0
:10024000E80080910C0190910D01009709F4C5C060
:10025000789A9C012150304030930D0120930C017D
:1002600010920F0110920E01E0910801F091090126
:100270008081C82FD0E0CF70D070C330D10509F491
:100280006CC0C430D1055CF4C130D10509F471C033
:10029000C230D1050CF069C0CD2B61F09EC0C530D5
:1002A000D10509F473C0C530D105ACF1269709F02A
:1002B00094C07CC0220F331F220F331F30930D01D7
:1002C00020930C019081892F807F51F02450304081
:1002D00092959F70290F311D30930D0120930C01D1
:1002E000809111019091120140910A0150910B01EE
:1002F00060910C0170910D019F012F5F3F4F892B81
:1003000019F0C901C1D102C0C9011CD180930E01ED
:1003100010920F0162C0220F331F220F331F309340
:100320000D0120930C019081892F807F51F0245082
:10033000304092959F70290F311D30930D0120930D
:100340000C0160910C0170910D0140910A015091D6
:100350000B01CF01019657D2D9CF00910A0110911C
:100360000B0122D3F801808332C08181817031D3A7
:1003700029C08181817028D3E0910A01F0910B019D
:100380001082D0930F01C0930E0127C0818110927B
:10039000110180931201E0910A01F0910B0110828A
:1003A00081E090E090930F0180930E01E0910801AD
:1003B000F09109016181862F90E096958795617093
:1003C00081700ED3E0910A01F0910B01108281E05F
:1003D00090E090930F0180930E01DF91CF911F91D8
:1003E0000F91089581E061E842E3B4D482E060E8CF
:1003F00042E3B0D486ED90E061E0FAD281E185B9C4
:10040000089586ED90E060E0F3D284EA98E060E041
:10041000EFC284EA98E061E0EBD286ED90E061E023
:10042000E7C21F93CF93DF9384B7877F84BF88E1B0
:100430000FB6F89480936000109260000FBE80E0C9
:1004400090E020E80FB6F89420936100809361005B
:100450000FBE6FD080E090E0E0910801F0910901BB
:10046000E80FF91F1082019621E088369207A1F764
:1004700080E090E0E0910A01F0910B01E80FF91F94
:100480001082019621E088369207A1F710920D01A3
:1004900010920C0110920F0110920E011092100197
:1004A00012E010937D0272D510937D02C0E0D1E07E
:1004B0008A81882319F0E881F9810995249681E0E1
:1004C000C830D807A9F72897F3CFDA01923049F05E
:1004D000933061F0913029F5ECEAF0E022E130E070
:1004E00024C0EEEBF0E020E230E01FC0813059F094
:1004F000813028F0823059F0833099F40CC0EEED51
:10050000F0E084910BC0E2EEF0E0849107C0E0E1FE
:10051000F1E0849103C0EAE2F1E08491282F30E019
:1005200004C0E0E0F0E020E030E0ED93FC93C9018E
:10053000089580B3836080BB15B887E984B981E1F1
:1005400085B90895AF92BF92CF92DF92EF92FF925A
:100550000F931F93CF93DF935A016C0120E0C0E00B
:10056000D0E040E050E0A1E0B0E093E0E92EF12CD3
:1005700002E010E0F601308185B1932F94788B77FB
:10058000982B95B9299A0000299883B126958295D0
:100590008078282BA617B70708F051C0E32FE695FF
:1005A000E69585B19E2F94788B77982B95B9299AEB
:1005B0000000299883B1269582958078282B06170C
:1005C000170710F0D8013BC085B1E695E695E478B1
:1005D0008B77E82BE5B9299A0000299883B12695F5
:1005E00082958078282BE616F70610F0D70127C0F1
:1005F00085B18B7785B9299A0000299883B1269512
:1006000082958078282B4C5F5F4FCA01877090706D
:10061000892B31F4F501EC0FFD1F2083219620E09A
:1006200014960894C11CD11C84E090E0E80EF91ED9
:100630000C5F1F4F4617570708F49CCFDA01FD01E6
:10064000E770F070309769F0CA0DDB1D30E088E08C
:1006500090E08E1B9F0B02C0359527958A95E2F797
:100660002883695F7F4F83E0769567958A95E1F7E8
:10067000862FDF91CF911F910F91FF90EF90DF9028
:10068000CF90BF90AF9008958F929F92AF92BF92FC
:10069000CF92DF92EF92FF920F931F93CF93DF934E
:1006A0004A015C0120E0C0E0D0E000E010E041E061
:1006B000C42ED12C43E050E032E0E32EF12CF501C2
:1006C000308185B1932F94788B77982B95B9299A9F
:1006D000A0911101B0911201CD010197F1F7299874
:1006E000CD010197F1F783B1269582958078282B6B
:1006F000C616D70610F0A6015FC0E32FE695E69573
:1007000085B19E2F94788B77982B95B9299ACD0136
:100710000197F1F72998CD010197F1F783B126955B
:1007200082958078282BE616F70610F0A70144C0C2
:1007300085B1E695E695E4788B77E82BE5B9299ABB
:10074000CD010197F1F72998CD010197F1F783B118
:10075000269582958078282B4617570768F585B12E
:100760008B7785B9299ACD010197F1F72998CD01A9
:100770000197F1F783B1269582958078282B0C5F3D
:100780001F4FC80187709070892B31F4F401EC0F72
:10079000FD1F2083219620E084E090E0C80ED91E42
:1007A0000894A11CB11C4C5F5F4FE80EF91E0617A0
:1007B000170708F484CFA801FA01E770F0703097AA
:1007C00069F0C80DD91D30E088E090E08E1B9F0BCA
:1007D00002C0359527958A95E2F72883695F7F4F98
:1007E00023E0769567952A95E1F7862FDF91CF91E3
:1007F0001F910F91FF90EF90DF90CF90BF90AF903F
:100800009F908F900895AF92BF92CF92DF92EF9218
:10081000FF920F931F93CF93DF935A016C0120E057
:10082000C0E0D0E040E050E0F1E0EF2EF12CA3E09A
:10083000B0E002E010E0F601308185B1932F9478AA
:100840008B77982B95B9299AE0911101F0911201BB
:10085000CF010197F1F72998CF010197F1F783B103
:10086000269582958078282B83B12695880F880F4E
:100870008078282BE616F70610F0D7016FC0369562
:10088000369585B1932F94788B77982B95B9299AC3
:10089000CF010197F1F72998CF010197F1F783B1C3
:1008A000269582958078282B83B12695880F880F0E
:1008B0008078282B0617170710F0D8014FC085B194
:1008C0003695369534788B77382B35B9299ACF0100
:1008D0000197F1F72998CF010197F1F783B1269598
:1008E00082958078282B83B12695880F880F807891
:1008F000282BA617B70790F585B18B7785B9299A6C
:10090000CF010197F1F72998CF010197F1F783B152
:10091000269582958078282B83B12695880F880F9D
:100920008078282B4C5F5F4FCA0183709070892BB1
:1009300031F4F501EC0FFD1F2083219620E084E0C7
:1009400090E0E80EF91E0894C11CD11C14960C5FAF
:100950001F4F4617570708F46ECFDA01FD01E37009
:10096000F070309779F0CA0DDB1D30E084E090E044
:100970008E1B9F0B880F991F02C0359527958A956E
:10098000E2F728836D5F7F4F76956795769567953B
:10099000862FDF91CF911F910F91FF90EF90DF9005
:1009A000CF90BF90AF90089583B1282F22952695C0
:1009B000277030E021703070220F331F86958695A6
:1009C00086958170822B089595B19E7F982B95B95D
:1009D000089595B18295807F9F7E982B95B9089553
:1009E00095B19E7E982B6295607F962B95B9089560
:1009F0009C01E0E0F1E008C08081918182179307BB
:100A000011F462830895349680917D0290E0880FFE
:100A1000991F880F991F80509F4FE817F90761F7BA
:100A20000895DF93CF9300D0CDB7DEB7E5E8F2E0CD
:100A30008091F100819382E0ED38F807C9F7809149
:100A4000850230918602353009F499C0363048F479
:100A5000313009F445C0313070F0333009F066C1EF
:100A60003FC0383009F420C1393009F440C1363074
:100A700009F05CC19FC0803821F0823809F056C16E
:100A800008C09091800280918102882391F0926049
:100A900010C0809189028093E9008091EB0090E082
:100AA00025E0969587952A95E1F7982F91701092F9
:100AB000E9008091E800877F8093E8009093F1003F
:100AC0001092F1008091E800982F9E7F9093E800AB
:100AD0008F778093E8008091E80082FFFCCFFDC013
:100AE000882319F0823009F021C190E08F71907055
:100AF000009719F00297B9F50CC0809187028130F8
:100B000009F015C110928102333069F5809381029A
:100B10002AC080918702882331F5209189022770AD
:100B200009F405C12093E9008091EB0080FF1BC010
:100B30003130A1F48091EB0080618093EB0081E083
:100B400090E002C0880F991F2A95E2F78093EA008F
:100B50001092EA008091EB00886003C08091EB0066
:100B600080628093EB001092E9008091E800877F1B
:100B70008093E8008091E800982F9E7FB2C0882380
:100B800009F0D4C08091E800877F8093E8008091CD
:100B9000E800982F9E7F9093E8008F778093E8007D
:100BA0008091E80080FFFCCF80918702806880936D
:100BB000E300BDC08058823008F0B8C08091870241
:100BC0009091880260918902AE014F5F5F4F7DDC9A
:100BD0009C01009709F4ABC08091E800877F809367
:100BE000E80080918B0290918C022817390720F43D
:100BF00030938C0220938B0279816A8120918B0241
:100C000030918C0240E035C08091E80082FF05C041
:100C100030938C0220938B0260C08091E80080FFAB
:100C2000F3CF872F962FFC0105C084918093F100AC
:100C300031969A017E2F6F2F2115310549F0809151
:100C4000F2009091F300A90141505040089768F3D9
:100C50008091F2009091F30040E0089709F441E0A0
:100C60008091E800982F9E7F9093E8008F77809383
:100C7000E8002115310589F610928C0210928B0242
:100C8000442369F08091E80080FFFCCF8091E80068
:100C9000982F9E7F9093E8008F778093E800809153
:100CA000E80082FFFCCF19C0803809F03FC0809176
:100CB000E800877F8093E800809182028093F100B2
:100CC0008091E800982F9E7F9093E8008F77809323
:100CD000E8008091E80082FFFCCF8091E800982F27
:100CE0009B7F9093E8008F778093E80020C0882353
:100CF000E9F430918202209187022230C0F4809181
:100D0000E800877F8093E800209382028091E800CA
:100D1000982F9E7F9093E8008F778093E80033238D
:100D200019F4222309F03ED15DDB01C028DA80915D
:100D3000E80083FF0AC08091EB0080628093EB00A3
:100D40008091E800877F8093E8000F900F90CF910B
:100D5000DF9108958093E9008091EB00816080939A
:100D6000EB001092ED006093EC004093ED00809159
:100D7000EE00881F8827881F08951092F40090E0E5
:100D80009093E9001092F0001092E8008091ED003D
:100D90008D7F8093ED008091EB008E7F8093EB0040
:100DA0009F5F973069F708958091E1008B7F809372
:100DB000E10094E68091EC0080FF05C08091E8009E
:100DC00080FF05C01FC08091E80082FD1BC080919C
:100DD0008402882311F482E008958091EB0085FF5E
:100DE00002C081E008958091E10082FFE3CF80910D
:100DF000E1008B7F8093E100992311F483E0089553
:100E00009150D8CF80E00895FF920F931F93CF9316
:100E1000DF93182F092FEB01C7DFF82E8823F1F499
:100E2000812F902F9C01890117C08091E80085FDDA
:100E30000DC08091E800982F9E7F9093E8008F77F7
:100E40008093E800B1DF882339F009C0F80181916F
:100E50008F018093F1002197209739F78F2DDF9133
:100E6000CF911F910F91FF900895FF920F931F93C1
:100E7000CF93DF93182F092FEB0196DFF82E8823ED
:100E8000F1F4812F902F9C01890117C08091E80017
:100E900085FD0DC08091E800982F9B7F9093E8001E
:100EA0008F778093E80080DF882339F009C0809134
:100EB000F100F80181938F012197209739F78F2D49
:100EC000DF91CF911F910F91FF9008956CD073D057
:100ED000109284021092820210928D02109281026E
:100EE000109280028AE482BF19BC89B5826089BDF4
:100EF00009B400FEFDCF8091D800982F9F77909382
:100F0000D80080688093D8008091D700816080935A
:100F1000D7008091D8008F7D8093D8008091E00029
:100F20008B7F8093E0008091D80081608093D8000F
:100F30008091E0008E7F8093E0008091E2008160EC
:100F40008093E2008091E20088608093E20008953F
:100F500080918402882309F054DA8091E000816056
:100F60008093E00020D027D0109284021092830258
:100F7000109282028091D8008F778093D80019BC9C
:100F80008091D8008F7E8093D8000895E1DF9EDFA6
:100F9000E8EDF0E080818061808381E080938302CE
:100FA000789408950895E8EDF0E080818E7F808345
:100FB0001092E20008951092DA001092E100089574
:100FC0001F920F920FB60F9211242F933F934F93BE
:100FD0005F936F937F938F939F93AF93BF93EF93A1
:100FE000FF938091DA0080FF33C08091D80080FFAA
:100FF0002FC08091DA008E7F8093DA00D3DF80915A
:10100000D90080FF0CC0CEDF80918402882309F0D4
:10101000F8D95CDF81E080938402FBD919C010927B
:101020008402EFD98091E00081608093E00080919C
:10103000D80080628093D80019BC8091D7008E7F41
:101040008093D700AFDF8091DA008E7F8093DA0043
:101050008091E10080FF1DC08091E20080FF19C0F7
:101060008091E1008E7F8093E1008091E2008E7F8D
:101070008093E2008091E20080618093E2008091A1
:10108000D80080628093D80019BC81E080938D02E3
:1010900089DF8091E10084FF22C08091E20084FF1B
:1010A0001EC019BC89B5826089BD09B400FEFDCFA0
:1010B0008091D8008F7D8093D8008091E1008F7E51
:1010C0008093E1008091E2008F7E8093E200809126
:1010D000E20081608093E20010928D0263DF8091D4
:1010E000E10083FF20C08091E20083FF1CC080915B
:1010F000E100877F8093E100109282028091E100FD
:101100008E7F8093E1008091E2008E7F8093E200E9
:101110008091E20080618093E2002FDE80E060E059
:1011200042E018DE3FDFFF91EF91BF91AF919F91B9
:101130008F917F916F915F914F913F912F910F9080
:101140000FBE0F901F9018950F931F9380918402EC
:10115000882379F00091E9001092E9008091E8007D
:1011600083FF04C01FB7F8945CDC1FBF07700093B7
:0C117000E9001F910F910895F894FFCF43
:0C117C00A4080000D600000015011301BB
:00000001FF
