:100000000C94AF000C94CD000C94CD000C94CD005A
:100010000C94CD000C94CD000C94CD000C94CD002C
:100020000C94CD000C94CD000C9424060C94CD00BF
:100030000C94CD000C94CD000C94CD000C94CD000C
:100040000C94CD000C94CD000C94CD000C94CD00FC
:100050000C94CD000C94CD000C94CD000C94CD00EC
:100060000C94CD000C9433050C94CD000C94CD0071
:100070000C94CD000C94CD000C94CD000C94CD00CC
:100080000C94CD000C94CD000C94CD000C94CD00BC
:100090000C94CD000C94CD000C94CD000C94CD00AC
:1000A0000C94CD000C94CD000C94CD0012010002F4
:1000B0000A0000208117660C0010000000010902F0
:1000C0005A0003010080FA09040000010202010045
:1000D000052400100105240103010424020605245F
:1000E000060001070583032000FF09040100020A3E
:1000F0000000000705810220000007050202200021
:10010000000904020202FFFFFF00070504022000AD
:1001100001070585022000010C034800530041003F
:1001200054004900220355005300420020005400AF
:1001300050004C00450041004E0041004C00490079
:100140005A004F0052000C0331002E0030002E00E8
:10015000300004030904FFFFFFFFFFFFFFFF11242E
:100160001FBECFEFDAE0DEBFCDBF81E011E0A0E03F
:10017000B1E0E8E7F6E102C005900D92AE30B107BC
:10018000D9F711E0AEE0B1E001C01D92A136B10790
:10019000E1F70E94CF000C943A0B0C940000E7EDBD
:1001A000F0E0808181608083A89587EF84BFE0E6DE
:1001B000F0E080818061808310820E9454070E9459
:1001C0004F0780E090E008951092210108958091FA
:1001D00021018823B9F482E08093E9008091E8004E
:1001E00082FF10C08091F20080932101882351F496
:1001F0008091E8008B7F8093E8008091E8008F7702
:100200008093E80080912101811181E0089582E0CE
:100210008093E90080912101882319F40E94E7006E
:10022000FBCF9091F10080912101815080932101B9
:10023000882351F48091E8008B7F8093E8008091BF
:10024000E8008F778093E800892F08958091E80077
:1002500090E025E0969587952A95E1F781700895BD
:10026000FC0181E08093E900262F19C08091E8000D
:1002700085FFFCCF04C081918093F10021508091D3
:10028000E80085FF02C02223B1F78091E8008E7F4D
:100290008093E8008091E8008F778093E800222324
:1002A00029F7862F90E08F719070892B71F48091DF
:1002B000E80085FFFCCF8091E8008E7F8093E80006
:1002C0008091E8008F778093E8000895DF93CF93C3
:1002D00000D0CDB7DEB79A838983CE01019661E065
:1002E0000E94300189819A810F900F90CF91DF9108
:1002F000089580E008958091E800877F8093E8006A
:10030000809129018093F10080912A018093F1006E
:1003100080912B018093F10080912C018093F1005A
:1003200080912D018093F10080912E018093F10046
:1003300080912F018093F1008091E8008E7F80935F
:10034000E8008091E80080FFFCCF8091E80082FF08
:10035000FCCF8091E8008B7F8093E8008091E800DB
:100360008F778093E80008958091E800877F8093DD
:10037000E8008091E80082FFFCCF8091F10080933B
:1003800029018091F10080932A018091F1008093EE
:100390002B018091F10080932C018091F1008093DA
:1003A0002D018091F10080932E018091F1008093C6
:1003B0002F018091E8008B7F8093E8008091E80016
:1003C0008F778093E8008091E8008E7F8093E8002B
:1003D0008091E80080FFFCCF2091290130912A0113
:1003E00040912B0150912C015695479537952795B3
:1003F00084E0220F331F441F551F8A95D1F760E018
:1004000072E18AE790E00E946F09215030403093FA
:10041000CD002093CC0008959091E800977F9093B1
:10042000E8009091E8009E7F9093E80080933A0165
:100430008091E80080FFFCCF089520913C0130912D
:100440003D0180910F01909110018217930711F4E3
:1004500080E008953093100120930F0183E0809392
:10046000E9008091E80085FD02C081E0089581EAFD
:100470008093F10080E28093F1001092F1001092DD
:10048000F1001092F1001092F10082E08093F100EF
:100490001092F10080913C018093F10080913D0128
:1004A0008093F1008091E8008E7F8093E800809136
:1004B000E8008F778093E80081E008958091E8005C
:1004C000877F8093E8008091E8008E7F8093E8002A
:1004D00081E080930E018091E80080FFFCCF0895B9
:1004E000DF93CF9300D0CDB7DEB72091F10090918C
:1004F000F1008132A9F429839A83623239F06332A0
:1005000051F06032A9F40E94B40110C089819A812F
:100510000E940C020BC089819A810E945E0206C073
:10052000813A31F4613221F40E947B0181E001C003
:1005300080E00F900F90CF91DF910895EF92FF929E
:100540000F931F9309EE10E083E0F801808381ECA4
:1005500060E20E94850781E0F801808381E860E223
:100560000E94850732E0E32EF801E08280E860E235
:100570000E94850724E0F22EF801F08280E860E214
:100580000E94850785E0F801808381E860E20E948F
:100590008507EAEEF0E088E080831082E082108236
:1005A000F082108280E18083108280E2808310825A
:1005B0001F910F91FF90EF90089509B400FC0BC0BC
:1005C00082B7807F82BF82B78A6482BF82E089BDA2
:1005D00009B400FEFDCF8091D8008F7D8093D800B4
:1005E00080911101813039F48091E0008260809324
:1005F000E000109211010895DF93CF9300D0CDB7A2
:10060000DEB78091E8008B7F8093E8009091F10045
:1006100090931A016091F1006630F9F0673068F448
:10062000613009F41CC1613008F498C1633009F4E9
:1006300050C1653009F0FDC1D6C0693009F4F5C07C
:100640006A3020F4683009F0F4C1B0C06A3009F4AF
:10065000C1C16B3009F0EDC1DBC1903809F0A3C016
:10066000109212016091F1008091F100813019F037
:10067000823089F406C082E1809326018CEA90E002
:1006800005C08AE5809326018EEB90E090932801C7
:100690008093270105C00E947901882309F4CEC107
:1006A0008091F1008091F1008091F1008983809127
:1006B000F1008A838091E800877F8093E800298198
:1006C0003A818091260190E08217930758F48F7148
:1006D0009070892B21F481E08093120105C0109263
:1006E000120102C0209326018091E8008F7E809342
:1006F000E80020912701309128014091260122C075
:100700008091E80084FF03C0F90190E00FC0809160
:10071000E80080FFF5CFF8CF542F5150903249F0C8
:100720009F5F84918093F1003196452F9F01442370
:1007300099F78091E80084FD12C08091E8008E7FD7
:100740008093E800442339F4209327013093280153
:10075000109226010AC08091E80084FFD8CF209330
:1007600027013093280140932601809112018130A6
:1007700069F48091E80084FD09C08091E80080FF61
:10078000FCCF8091E8008E7F8093E8008091E800A4
:1007900084FFFCCF8091E8008F7E8093E8008091F9
:1007A000E8008B7F53C1892F66E02FC19038C1F4D8
:1007B0008091E800877F8093E800809125018093F5
:1007C000F1008091E8008E7F8093E8008091E8003E
:1007D0008F778093E8008091E80082FFFCCF0AC108
:1007E000892F68E012C19923E9F49091F10080917A
:1007F000E3009F778078982B9093E3008091E80046
:10080000877F8093E8008091E8008E7F8093E800E6
:100810008091E80080FFFCCF8091E30080688093A6
:10082000E30016C1892F65E0F0C09923A9F49091E7
:10083000F100923008F002C18091E800877F809338
:10084000E800909325018091E8008E7F8093E80076
:10085000892F0E949E02FCC0892F69E0D6C0933088
:10086000A8F5992309F441C0913009F4E7C08091BB
:10087000F1009091F100882309F0E0C0E091F100CF
:10088000EF77E093E9008091EB0080FF61C0EE23F9
:10089000B1F08091EB0080618093EB0081E090E00B
:1008A0000E2E02C0880F991F0A94E2F78093EA0087
:1008B0001092EA008091EB0088608093EB00109228
:1008C000E900F0E0ED5EFE4F108239C0892F61E053
:1008D0009CC0933008F03FC0913009F4AFC0913014
:1008E00020F0923009F0AAC003C08091F100A6C0A8
:1008F0008091F1009091F100882309F09FC0E09170
:10090000F100EF7751F48091EB0080628093EB006F
:100910008091E800877F8093E800E093E900809170
:10092000EB0080FF15C08091EB0080628093EB00AC
:100930001092E900F0E0ED5EFE4F81E0808380914F
:10094000E800877F8093E8008091E8008E7F7EC07A
:100950001092E90073C0892F63E057C0892F805837
:100960008330A8F58091F1008091F100E091F100D1
:10097000913861F0923891F0903809F05FC0809121
:10098000E800877F8093E80081E013C08091E80051
:10099000877F8093E8001092F1000DC08091E800FD
:1009A000877F8093E800F0E0EF77F070ED5EFE4F18
:1009B00080818093F1001092F1008091E8008E7F99
:1009C0008093E8008091E80082FFFCCF13C0892F5C
:1009D00060E01BC09138B9F48091E800877F809374
:1009E000E8008091E8008E7F8093E8008091E80025
:1009F00082FFFCCF8091E8008B7F8093E80080919C
:100A0000E8008F7723C0892F6AE00E94700220C01F
:100A10009130F1F48091E800877F8093E800809125
:100A2000E8008E7F8093E8008091E80080FFFCCF93
:100A30000FC0892F0E947002882351F48091EB002F
:100A400080628093EB008091E800877F8093E800CC
:100A50000F900F90CF91DF91089580913B018F5FB0
:100A600080933B0108951F920F920FB60F921124AD
:100A70001F932F933F934F935F936F937F938F9326
:100A80009F93AF93BF93EF93FF93809125018823AA
:100A9000E1F01091E90081E08093E90060E080914D
:100AA000C80087FF08C0E62FF0E08091CE00E05D2F
:100AB000FE4F80836F5F8091E80085FFF0CF80E379
:100AC00091E00E9430011093E900FF91EF91BF91F6
:100AD000AF919F918F917F916F915F914F913F91D6
:100AE0002F911F910F900FBE0F901F90189580911E
:100AF0002501882321F180913A0180FF20C0809157
:100B0000C80085FF13C00E94E700882359F40EC077
:100B10000E94070190E00E946601799A80E091E0CE
:100B20000E94DD0980912101882391F780910E01B7
:100B3000813029F410920E01789A0E946F0708956F
:100B40000E94E407E9ECF0E080818068808380B354
:100B5000836080BBE2EEF0E080818460808386E683
:100B600091E067E071E00E9491090895E8EDF0E0FE
:100B700080818F778083808180688083808180619D
:100B80008083808181608083789408958091D800EB
:100B900080628093D80082B7807F82BF82B78A64E8
:100BA00082BF82E089BD09B400FEFDCF8091D800EC
:100BB0008F7D8093D8008091E0008E7F8093E0004D
:100BC0008091E000877F8093E0008091E200816067
:100BD0008093E2008091E20088608093E200789444
:100BE0000E94D107089580911B01882371F48091A0
:100BF000D90080FF0AC08091D80080688093D80017
:100C000081E080931B010E94C60580911D01909197
:100C10001E0190FF10C080911D0190911E019E7FCA
:100C200090931E0180931D0181E08093EA00109251
:100C3000EA00109225011092E9008091E80083FFFC
:100C400002C00E94FC0208951F920F920FB60F92ED
:100C500011242F933F934F935F936F937F938F93C1
:100C60009F93AF93BF93EF93FF938091DA0080FF40
:100C700031C08091D80080FF2DC08EEF8093DA00C4
:100C80008091D90080FF19C081E080931B01809181
:100C90001D0190911E01826090931E0180931D01A1
:100CA0008091E20088608093E2000E94C6058091F6
:100CB000E0008E7F8093E0000DC010921B01109227
:100CC000250180911D0190911E01846090931E0169
:100CD00080931D018091E10082FF09C08091E200B4
:100CE00082FF05C08BEF8093E1000E942D0580916B
:100CF000E10080FF29C08091E20080FF25C081E0F3
:100D000080931C018FEE8093E10080911D019091F2
:100D10001E01806290931E0180931D018EEF8093CF
:100D2000E1008091E20080618093E2008091E20026
:100D30008F7D8093E2008091D80080628093D800FC
:100D400089B58D7F89BD19BC8091E10084FF47C0C2
:100D50008091E20084FF43C009B400FC0BC082B75D
:100D6000807F82BF82B78A6482BF82E089BD09B476
:100D700000FEFDCF8091D8008F7D8093D8009FEE3C
:100D80009093E10080911C01882349F18091E20059
:100D900080628093E2008091E20088608093E200AC
:100DA0009093E1008091E2008F7E8093E200809139
:100DB0001D0190911E01806490931E0180931D017E
:100DC0008091E20081608093E2008091E200806285
:100DD0008093E2008091E20088608093E20080913D
:100DE000E10085FF1CC08091E20085FF18C01092D1
:100DF0001C018091E2008F7E8093E2008FED809352
:100E0000E1008091E2008F7D8093E20080911D01DE
:100E100090911E01806890931E0180931D01809126
:100E2000E10083FF14C08091E20083FF10C01092A4
:100E3000240187EF8093E1000E94D10780911D017A
:100E400090911E01916090931E0180931D01FF916E
:100E5000EF91BF91AF919F918F917F916F915F9132
:100E60004F913F912F910F900FBE0F901F901895AB
:100E70000E94F30508950E94B6051092240108957A
:100E800008950E9438070E9477050E946B08F9CFE9
:100E90000E943B070E94A0050E94700808950E94CE
:100EA00048070E9441070895809161019091620175
:100EB000A0916301B091640185559A4AAA4AB5454B
:100EC00069F4109261011092620110926301109214
:100ED0006401E0910601F09107010995089585E507
:100EE0009AEAAAEAB5E58093610190936201A09322
:100EF0006301B0936401A895809160008061809344
:100F0000600088E080936000FFCF9091EB009160DB
:100F10009093EB008093EC008091ED008270862B23
:100F20008093ED008091ED0082608093ED008091D0
:100F3000EE00881F8827881F08959091F40080E0B4
:100F400090FD06C08F5F873011F09695F9CF80E055
:100F50000895FB018093E90004C081918093F10022
:100F600041508091E80085FF02C04423B1F7842FEF
:100F70000895FB018093E90004C08091F100819302
:100F800041508091E80085FF02C04423B1F7842FCF
:100F900008958093E900EBEEF0E080818062808329
:100FA00008951092E9008091EB0080FF02C080E07C
:100FB00008951092E90082E060E20E94850708959A
:100FC0008091C8008078089589E190E09093CD00E9
:100FD0008093CC00E8ECF0E080818260808386E042
:100FE0008093CA00E9ECF0E080818861808381E031
:100FF0000895282F8091C80085FFFCCF2093CE0054
:10100000822F08958091C80087FFFCCF8091CE0089
:10101000089513BE83B7856083BF8895089513BE76
:1010200083B7816083BF8895089513BE83B78360BB
:1010300083BF8895089513BE83B7876083BF889563
:10104000089513BE83B78D6083BF8895089513BE3E
:1010500083B78F6083BF889508958091C5008460B1
:101060008093C5008091C70080FFFCCF8091C500B0
:1010700081608093C5008091C500877F8093C50003
:1010800008958091C50088608093C5008091C70055
:1010900081FFFCCF8091C5008E7F8093C500809139
:1010A000C5008B7F8093C50008950FD0F72FE62FE2
:1010B00041E247BFC895802D08C007D0F72FE62F23
:1010C00049E047BFC895802D00C0022E27B720FDFC
:1010D000FCCF202D0895809125018111789A0895E3
:1010E00084B1866884B90E947608089510925601EA
:1010F0000895109220010895FC01208130E0E091D4
:101100002001F0E0EE0FFF1FE25CFE4F922F8827D8
:10111000822B932B9183808308958091560188239D
:10112000B9F484E08093E9008091E80082FF10C068
:101130008091F20080935601882351F48091E80059
:101140008B7F8093E8008091E8008F778093E800A0
:1011500080915601811181E0089584E08093E90037
:1011600080915601882319F40E948D08FBCF90913D
:10117000F10080915601815080935601882351F4EB
:101180008091E8008B7F8093E8008091E8008F7762
:101190008093E800892F08958091E80090E025E091
:1011A000969587952A95E1F781700895FC0185E071
:1011B0008093E900262F19C08091E80085FFFCCFBD
:1011C00004C081918093F10021508091E80085FF57
:1011D00002C02223B1F78091E8008E7F8093E8005F
:1011E0008091E8008F778093E800222329F7862FEB
:1011F00090E08F719070892B71F48091E80085FFE9
:10120000FCCF8091E8008E7F8093E8008091E80019
:101210008F778093E8000895DF93CF9300D0CDB708
:10122000DEB79A838983CE01019661E00E94D608D9
:1012300089819A810F900F90CF91DF910895E0916D
:101240002001F0E0EA5AFE4FB081FC01A0E020E06E
:1012500030E04B2F50E0447050701EC0C9018370C5
:101260009070892B09F4A1918A2F8B2780FF02C0EF
:101270002A9A01C02A9881FF02C02F9A01C02F9894
:101280004115510519F02998299802C0299A299ADF
:10129000A695A6952F5F3F4F26173707FCF20895B6
:1012A000E0912001F0E0EA5AFE4FE08193B18E27F1
:1012B00080FF02C02A9A01C02A9881FF02C02F9A9B
:1012C00001C02F98E2FF03C02998299A02C0299AE9
:1012D0002998969596959695892F81700895A1E203
:1012E0001A2EAA1BBB1BFD010DC0AA1FBB1FEE1FA0
:1012F000FF1FA217B307E407F50720F0A21BB30BEB
:10130000E40BF50B661F771F881F991F1A9469F766
:1013100060957095809590959B01AC01BD01CF01C2
:1013200008950F931F93CF93DF938C01EB010097E8
:1013300031F46115710519F420E030E038C081E026
:1013400090E06EE070E00E94120AFC019C010097A0
:1013500071F180E88383209771F0D387C28781E899
:1013600083838091570190915801892B21F4F09348
:101370005801E093570101151105C9F01187008745
:101380008381826083838091590190915A01892BD6
:1013900071F4F0935A01E093590180915B019091AF
:1013A0005C01892B21F4F0935C01E0935B01C9019E
:1013B000DF91CF911F910F9108950F931F93CF93BA
:1013C000DF938C01E0915901F0915A01838181FFF3
:1013D00021C0C0E0D0E00DC0E0915901F0915A0168
:1013E00020853185BF01F9010995892B11F0CFEFD7
:1013F000DFEFF80181918F01882371F7E0915901A6
:10140000F0915A01208531858AE0BF01F9010995E3
:10141000892B11F0CFEFDFEFCE01DF91CF911F913C
:101420000F9108950F931F93CF93DF93689F8001CF
:10143000699F100D789F100D1124C8010E942E0A7B
:10144000EC01009729F060E070E0A8010E94330BE6
:10145000CE01DF91CF911F910F910895CF93DF932C
:10146000BC018230910510F462E070E0A0915F0150
:10147000B0916001ED01E0E0F0E040E050E021C01B
:10148000888199818617970769F48A819B813097B3
:1014900019F09383828304C09093600180935F016D
:1014A000FE0134C06817790738F44115510519F069
:1014B0008417950708F4AC01FE018A819B819C0189
:1014C000E9012097E9F641155105A9F1CA01861BEA
:1014D000970B049708F4BA01E0E0F0E02AC08D9180
:1014E0009C91119784179507F9F46417750781F497
:1014F00012968D919C911397309719F09383828364
:1015000004C09093600180935F01FD0132964FC04B
:10151000CA01861B970BFD01E80FF91F61937193B8
:1015200002978D939C9343C0FD01828193819C011E
:10153000D9011097A1F680915D0190915E01892BF0
:1015400041F480910A0190910B0190935E01809388
:101550005D0140910C0150910D014115510541F47F
:101560004DB75EB78091080190910901481B590B56
:1015700020915D0130915E0124173507B0F4CA0156
:10158000821B930B8617970780F0AB014E5F5F4F6E
:101590008417950750F0420F531F50935E014093FC
:1015A0005D01F9016193719302C0E0E0F0E0CF01C9
:1015B000DF91CF910895CF93DF93009709F450C046
:1015C000EC0122971B821A82A0915F01B091600109
:1015D000109709F140E050E0AC17BD0708F1BB835C
:1015E000AA83FE0121913191E20FF31FAE17BF07CD
:1015F00079F48D919C911197280F391F2E5F3F4FE1
:101600003983288312968D919C9113979B838A83AB
:101610004115510571F4D0936001C0935F0120C062
:1016200012968D919C911397AD01009711F0DC01FA
:10163000D3CFFA01D383C28321913191E20FF31FFB
:10164000CE17DF0769F488819981280F391F2E5F33
:101650003F4FFA01318320838A819B819383828368
:10166000DF91CF910895DC0101C06D93415050404E
:08167000E0F70895F894FFCFA4
:0E167800746573740D000038200065010000D9
:00000001FF
