:10000000C8C00000E1C00000DFC00000DDC000008B
:10001000DBC00000D9C00000D7C00000D5C0000080
:10002000D3C00000D1C0000012C50000CDC0000048
:10003000CBC00000C9C00000C7C00000C5C00000A0
:10004000C3C00000C1C00000BFC00000BDC00000B0
:10005000BBC00000B9C00000B7C00000B5C00000C0
:10006000B3C00000B1C00000AFC00000ADC00000D0
:10007000ABC00000A9C00000A7C00000A5C00000E0
:10008000A3C00000A1C000009FC000009DC00000F0
:100090009BC0000099C0000097C0000095C0000000
:1000A00093C0000091C000008FC000001201100139
:1000B000EF020108EB034E200000010200010902DB
:1000C0008D00040100C032080B0002020201000989
:1000D00004000001020201000524000110052401B2
:1000E0000301042402060524060001070583030812
:1000F00000FF09040100020A0000000705020210C7
:10010000000007058102100000080B020202020134
:10011000000904020001020201000524000110058B
:1001200024010303042402060524060203070584B0
:10013000030800FF09040300020A00000007050687
:1001400002100000070585021000000403090418CE
:10015000034400650061006E002000430061006DF3
:100160000065007200610000001C034C0055004651
:1001700000410020004400750061006C0020004335
:1001800000440043002000440065006D006F000043
:10019000000011241FBECFEFDAE0DEBFCDBF11E0BB
:1001A000A0E0B1E0E2E5FFE002C005900D92AE37BD
:1001B000B107D9F711E0AEE7B1E001C01D92AC384C
:1001C000B107E1F78AD0C3C61BCF8BB18F70806AAD
:1001D0008BB908958BB18F7080618BB9089582E5DA
:1001E00091E055D688E691E052C68BB18F7080665B
:1001F0008BB982E591E004D6882321F48BB18F700E
:1002000080698BB988E691E0FBD5882321F48BB116
:100210008F7080698BB9089523B18CB1809590E07F
:1002200080739070959587952095207E282B27FDCB
:1002300017C024FF03C060E071E014C026FF03C0B4
:1002400060E171E00FC023FF03C060E271E00AC00B
:1002500025FF03C061E371E005C010927E0108959F
:1002600064E471E080917E01882371F481E08093E1
:100270007E01DB010D900020E9F71197A61BB70B5B
:1002800082E591E0AD0116C5089584B7877F84BFEC
:1002900088E10FB6F89480936000109260000FBE62
:1002A00080E090E020E80FB6F894209361008093FE
:1002B00061000FBE84B18F7184B98DB18F7C8DB90F
:1002C00085B1806E85B98EB180638EB98AB1806F39
:1002D0008AB98BB18F708BB9A1C3D7DF8BB18F7007
:1002E00080618BB999DF03C082E591E0B9D482E5E2
:1002F00091E07FD4892BC1F707C088E691E0B0D4A4
:10030000682F88E691E053D588E691E072D4892B76
:10031000A1F782E591E020D588E691E01DD555D47E
:10032000E1CFDA01923049F0933061F09130F9F485
:10033000ECEAF0E022E130E01EC0EEEBF0E02DE868
:1003400030E019C0813049F0813018F0823079F402
:1003500008C0EBE4F1E0849107C0EFE4F1E08491A0
:1003600003C0E9E6F1E08491282F30E004C0E0E02A
:10037000F0E020E030E0ED93FC93C90108951F9375
:10038000DF93CF9300D0CDB7DEB7E4E8F1E0809102
:10039000F100819381E0EC38F807C9F7809184017E
:1003A00030918501353009F486C0363040F4313063
:1003B000C1F1313070F0333009F0EFC032C0383065
:1003C00009F4BCC0393009F4CFC0363009F0E5C0BB
:1003D00091C0803821F0823809F0DFC008C09091C8
:1003E0007F0180918001882391F0926010C08091FC
:1003F00088018093E9008091EB0090E025E09695DC
:1004000087952A95E1F7982F91701092E9008091D5
:10041000E800877F8093E8009093F1001092F1004C
:1004200098C0882319F0823009F0B7C090E08F712E
:100430009070009721F0029709F0B0C00CC0809135
:100440008601813009F0AAC010928001333069F52D
:10045000809380012AC080918601882331F5209104
:100460008801277009F49AC02093E9008091EB007D
:1004700080FF1BC0333021F48091EB00806213C0F9
:100480008091EB0080618093EB0081E090E002C0FE
:10049000880F991F2A95E2F78093EA001092EA00EC
:1004A0008091EB0088608093EB001092E9008091CE
:1004B000E800877F55C0882309F06FC0109186013E
:1004C0008091E800877F8093E800B4D005C08091D8
:1004D0008301882309F462C08091E80080FFF7CF90
:1004E000912F9F7719F083E0809383019068909318
:1004F000E30054C08058823008F04FC080918601DC
:100500009091870160918801AE014F5F5F4F09DFD5
:10051000BC01009709F442C08091E800877F809376
:10052000E80089819A817FD18091E800982F9B7F94
:100530009093E8008F778093E80030C0803869F5A9
:100540008091E800877F8093E8008091810180930B
:10055000F1008091E800982F9E7F9093E8008F77BC
:100560008093E80067D01AC08823B9F4909186017F
:100570009230A0F48091E800877F8093E800909308
:10058000810158D080918101882311F483E001C05A
:1005900084E08093830129DE01C021DE8091E800A0
:1005A00083FF0AC08091EB0080628093EB00809112
:1005B000E800877F8093E8000F900F90CF91DF9144
:1005C0001F91089528E030E040E003C04F5F220F04
:1005D000331F28173907D0F3842F8295807F089521
:1005E0008093E9008091EB0081608093EB00109292
:1005F000ED006093EC004093ED008091EE00881FC9
:100600008827881F08951092F40090E09093E900E5
:100610001092F0001092E8008091ED008D7F8093A1
:10062000ED008091EB008E7F8093EB009F5F973011
:1006300069F70895809184018823BCF404C08091F7
:1006400083018823F9F08091E80082FFF8CF809140
:10065000E800982F9B7F9093E8008F778093E800C5
:10066000089580918301882369F08091E80080FFDC
:10067000F8CF8091E800982F9E7F9093E8008F77C5
:100680008093E800089594E68091EC0080FF05C017
:100690008091E80080FF05C01FC08091E80082FDC6
:1006A0001BC080918301882311F482E0089580911A
:1006B000EB0085FF02C081E008958091E10082FF98
:1006C000E3CF8091E1008B7F8093E100992311F4C7
:1006D00083E008959150D8CF80E00895DF92EF92A3
:1006E000FF920F931F93CF93DF93182F092FEB01E6
:1006F0007A01C9DFD82E882339F5812F902F9C01EC
:10070000890120C08091E80085FD16C08091E80035
:10071000982F9E7F9093E8008F778093E800E114F4
:10072000F10431F0F7010995813011F484E00DC036
:10073000AADF882339F009C0F80181918F018093E5
:10074000F10021972097F1F68D2DDF91CF911F9128
:100750000F91FF90EF90DF9008959C0140918A01E6
:1007600050918B014617570718F4D901E0E049C0B2
:100770006115710511F0AB01F8CF8091E800982F59
:100780009E7F9093E8008F778093E80040E050E0F0
:10079000ECCF8091E80083FF02C081E00895809152
:1007A000E80082FD38C0809183018823D1F18091D7
:1007B000E80080FF26C08091F3009091F200782F2E
:1007C00060E0292F30E0262B372B07C08D918093D6
:1007D000F100415050402F5F3F4F4115510519F036
:1007E0002830310598F3E0E02830310509F4E1E0E4
:1007F0008091E800982F9E7F9093E8008F778093F8
:10080000E8004115510529F6EE2319F604C0809140
:100810008301882331F08091E80082FFF8CF80E0E7
:10082000089582E008959C0140918A0150918B01C6
:100830004617570710F4E0E04BC06115710511F041
:10084000AB01F9CF8091E800982F9E7F9093E8004C
:100850008F778093E80040E050E0EDCF8091E80092
:1008600083FF02C081E008958091E80082FD3CC0D2
:1008700080918301882309F43DC08091E80080FFC6
:1008800027C08091F3009091F200782F60E0892FCB
:1008900090E0862B972B09C0F9012F5F3F4FE49121
:1008A000E093F1004150504001964115510519F077
:1008B0008830910588F3E0E0089709F4E1E0809141
:1008C000E800982F9E7F9093E8008F778093E80050
:1008D0004115510509F0C2CFEE2309F0BFCF04C086
:1008E00080918301882331F08091E80082FFF8CF66
:1008F00080E0089582E008959C016115710549F436
:100900008091E800982F9B7F9093E8008F778093E9
:10091000E800F90129C08091E80083FF02C081E06E
:10092000089580918301882369F18091E80082FF16
:10093000F2CF06C08091F10081936150704059F070
:100940002091F3008091F200322F20E090E0822B82
:10095000932B892B79F78091E800982F9B7F9093B8
:10096000E8008F778093E80061157105A1F604C057
:1009700080918301882331F08091E80080FFF8CFD7
:1009800080E0089582E0089555D05CD010928301F4
:10099000109281011092800110927F018AE482BF3F
:1009A00019BC89B5826089BD09B400FEFDCF809174
:1009B000D800982F9F779093D80080688093D800B4
:1009C0008091D70081608093D7008091D8008F7D7F
:1009D0008093D8008091E0008B7F8093E00080912D
:1009E000E0008E7F8093E0008091E1008E7F809315
:1009F000E1008091E20081608093E2008091E1005B
:100A0000877F8093E1008091E20088608093E2001C
:100A10008091D80081608093D8000895B5DFE8ED1B
:100A2000F0E080818061808381E08093820178940E
:100A300008950895E8EDF0E080818E7F8083109224
:100A4000E20008951092DA001092E10008951F92DA
:100A50000F920FB60F9211242F933F934F935F93F2
:100A60006F937F938F939F93AF93BF93EF93FF9376
:100A70008091DA0080FF15C08091D80080FF11C0FE
:100A80008091DA008E7F8093DA008091D90080FF18
:100A900005C081E08093830198DB03C0109283013D
:100AA00099DB8091E10080FF1DC08091E20080FF12
:100AB00019C08091E1008E7F8093E1008091E20077
:100AC0008E7F8093E2008091E20080618093E2005B
:100AD0008091D80080628093D80019BC85E0809313
:100AE0008301A7DF8091E10084FF29C08091E200AB
:100AF00084FF25C019BC89B5826089BD09B400FE98
:100B0000FDCF8091D8008F7D8093D8008091E10047
:100B10008F7E8093E1008091E2008F7E8093E200DF
:100B20008091E20081608093E200809181018823BE
:100B300011F483E001C084E0809383017ADF809127
:100B4000E10083FF23C08091E20083FF1FC08091FA
:100B5000E100877F8093E10082E08093830110921F
:100B600081018091E1008E7F8093E1008091E2001D
:100B70008E7F8093E2008091E20080618093E200AA
:100B800042DD80E060E042E02BDD53DF8091E10058
:100B900082FF0AC08091E20082FF06C08091E100DE
:100BA0008B7F8093E10045DFFF91EF91BF91AF9183
:100BB0009F918F917F916F915F914F913F912F9175
:100BC0000F900FBE0F901F9018951F938091830177
:100BD000882361F01091E9001092E9008091E8000B
:100BE00083FF01C0CCDB17701093E9001F910895BB
:100BF0000895FC0180918301843071F58785908987
:100C0000A189B2890097A105B10531F18581809351
:100C1000E9008091E80082FF1FC04091F30020911D
:100C2000F200942F80E030E0822B932B892B49F443
:100C30008091E800982F9B7F9093E8008F778093B6
:100C4000E8008091F3009091F200382F20E0492FC6
:100C500050E0422B532B02C040E050E0CA010895FF
:100C6000FC0180918301843011F587859089A189E9
:100C7000B2890097A105B105D1F085818093E90083
:100C80005091F1004091F3002091F200942F80E008
:100C900030E0822B932B892B59F48091E800982F18
:100CA0009B7F9093E8008F778093E80001C050E02D
:100CB000852F0895FC0180918301843081F487851C
:100CC0009089A189B2890097A105B10541F0818180
:100CD0008093E900CB01BA0140E050E0FFCC82E014
:100CE0000895FC0180918301843089F5878590897E
:100CF000A189B2890097A105B10549F1818180934D
:100D0000E9004091F3002091F200942F80E030E060
:100D1000822B932B892BE9F08091E8009091E800D9
:100D2000292F2E7F2093E8009F779093E80085FD80
:100D300010C0A9DC282F882369F48091E800982F3F
:100D40009E7F9093E8008F778093E80003C022E0B5
:100D500001C020E0822F0895FC018091830184303E
:100D600029F587859089A189B2890097A105B105E8
:100D7000E9F085818093E9008091E80082FF14C04A
:100D80004091F3002091F200942F80E030E0822B1C
:100D9000932B892B49F48091E800982F9B7F9093A7
:100DA000E8008F778093E800CF019BCF08951F93D1
:100DB000FC01162F809183018430F9F48785908996
:100DC000A189B2890097A105B105B9F0818180930D
:100DD000E9008091E80085FD0CC08091E800982F23
:100DE0009E7F9093E8008F778093E8004CDC882307
:100DF00029F41093F10080E001C082E01F91089572
:100E00000F931F93CF93DF93EC010D96FC0189E0C4
:100E1000DF011D928A95E9F709818C81882311F4FD
:100E200012E001C016E08A819B81CCDB182B802F59
:100E300061E8412FD5DB882321F10D818885882346
:100E400011F412E001C016E08E819F81BBDB182BEC
:100E5000802F60E8412FC4DB882399F009858C85B9
:100E6000882311F412E001C016E08A859B85AADB75
:100E7000182B802F61EC412FB3DB882319F081E020
:100E800001C080E0DF91CF911F910F910895CF9322
:100E9000DF93EC018091E80083FF56C0888190E0E9
:100EA00020918801309189012817390709F04CC039
:100EB00080918501813231F08232B9F1803209F0BE
:100EC00043C019C080918401813A09F03DC08091EE
:100ED000E800877F8093E800CE010F9667E070E01E
:100EE0003CDC8091E800982F9B7F9093E8008F77FF
:100EF0008093E80029C080918401813229F5809196
:100F0000E800877F8093E800CE010F9667E070E0ED
:100F1000F3DC8091E800982F9E7F9093E8008F7714
:100F20008093E800CE0164DE0FC08091840181329D
:100F300059F48091E800877F8093E80080918601D2
:100F40008D87CE0155DE76DBDF91CF910895F89441
:020F5000FFCFD1
:100F52004A6F79737469636B20446F776E0D0A0070
:100F62004A6F79737469636B204C6566740D0A006D
:100F72004A6F79737469636B2052696768740D0AEA
:100F8200004A6F79737469636B205072657373657D
:100F9200640D0A004A6F79737469636B2055700D92
:100FA2000A00000110000002100000030800000007
:100FB2000000000000000000020510000006100002
:0E0FC200000408000000000000000000000015
:00000001FF
